{
  "contractName": "Store",
  "abi": [
    {
      "inputs": [],
      "payable": false,
      "stateMutability": "nonpayable",
      "type": "constructor"
    },
    {
      "anonymous": false,
      "inputs": [
        {
          "indexed": false,
          "internalType": "string",
          "name": "name",
          "type": "string"
        },
        {
          "indexed": false,
          "internalType": "uint256",
          "name": "id",
          "type": "uint256"
        }
      ],
      "name": "ProductAdded",
      "type": "event"
    },
    {
      "constant": true,
      "inputs": [],
      "name": "productCount",
      "outputs": [
        {
          "internalType": "uint256",
          "name": "",
          "type": "uint256"
        }
      ],
      "payable": false,
      "stateMutability": "view",
      "type": "function"
    },
    {
      "constant": true,
      "inputs": [
        {
          "internalType": "uint256",
          "name": "",
          "type": "uint256"
        }
      ],
      "name": "productList",
      "outputs": [
        {
          "internalType": "uint256",
          "name": "id",
          "type": "uint256"
        },
        {
          "internalType": "string",
          "name": "name",
          "type": "string"
        },
        {
          "internalType": "uint256",
          "name": "price",
          "type": "uint256"
        },
        {
          "internalType": "uint256",
          "name": "quantity",
          "type": "uint256"
        },
        {
          "internalType": "string",
          "name": "description",
          "type": "string"
        },
        {
          "internalType": "string",
          "name": "imgUrl",
          "type": "string"
        }
      ],
      "payable": false,
      "stateMutability": "view",
      "type": "function"
    },
    {
      "constant": false,
      "inputs": [
        {
          "internalType": "string",
          "name": "_username",
          "type": "string"
        },
        {
          "internalType": "string",
          "name": "_name",
          "type": "string"
        },
        {
          "internalType": "string",
          "name": "_billingAdd",
          "type": "string"
        },
        {
          "internalType": "string",
          "name": "_password",
          "type": "string"
        }
      ],
      "name": "addUser",
      "outputs": [],
      "payable": false,
      "stateMutability": "nonpayable",
      "type": "function"
    },
    {
      "constant": false,
      "inputs": [
        {
          "internalType": "string",
          "name": "_name",
          "type": "string"
        },
        {
          "internalType": "string",
          "name": "_description",
          "type": "string"
        },
        {
          "internalType": "string",
          "name": "_imgUrl",
          "type": "string"
        },
        {
          "internalType": "uint256",
          "name": "_price",
          "type": "uint256"
        },
        {
          "internalType": "uint256",
          "name": "_quantity",
          "type": "uint256"
        }
      ],
      "name": "addProduct",
      "outputs": [
        {
          "internalType": "uint256",
          "name": "",
          "type": "uint256"
        }
      ],
      "payable": false,
      "stateMutability": "nonpayable",
      "type": "function"
    }
  ],
  "bytecode": "0x608060405260008055600060015560006002553480156200001f57600080fd5b50620000a0604051806060016040528060258152602001620014b56025913960405180610100016040528060c38152602001620013f260c391396040518060400160405280601481526020017f2f696d6755726c732f616972706f64732e6a7067000000000000000000000000815250613a976014620001a960201b60201c565b5062000121604051806060016040528060278152602001620015016027913960405180610100016040528060c38152602001620013f260c391396040518060400160405280601481526020017f2f696d6755726c732f616972706f64732e6a7067000000000000000000000000815250613a976014620001a960201b60201c565b50620001a2604051806060016040528060278152602001620014da6027913960405180610100016040528060c38152602001620013f260c391396040518060400160405280601481526020017f2f696d6755726c732f616972706f64732e6a7067000000000000000000000000815250613a976014620001a960201b60201c565b50620004ef565b6000620001b5620003b1565b6040518060e0016040528060005481526020018881526020018581526020018481526020018781526020018681526020016000604051908082528060200260200182016040528015620002175781602001602082028038833980820191505090505b5081525090508060046000805481526020019081526020016000206000820151816000015560208201518160010190805190602001906200025a929190620003ee565b50604082015181600201556060820151816003015560808201518160040190805190602001906200028d929190620003ee565b5060a0820151816005019080519060200190620002ac929190620003ee565b5060c0820151816006019080519060200190620002cb92919062000475565b5090505060008081548092919060010191905055507fc5d4861449b1cd27a693d2d1feb76f9c3605c08419dbd5e5445942aa9cbf2c32876000546040518080602001838152602001828103825284818151815260200191508051906020019080838360005b838110156200034d57808201518184015260208101905062000330565b50505050905090810190601f1680156200037b5780820380516001836020036101000a031916815260200191505b50935050505060405180910390a16004600060016000540381526020019081526020016000206000015491505095945050505050565b6040518060e00160405280600081526020016060815260200160008152602001600081526020016060815260200160608152602001606081525090565b828054600181600116156101000203166002900490600052602060002090601f016020900481019282601f106200043157805160ff191683800117855562000462565b8280016001018555821562000462579182015b828111156200046157825182559160200191906001019062000444565b5b509050620004719190620004c7565b5090565b828054828255906000526020600020908101928215620004b4579160200282015b82811115620004b357825182559160200191906001019062000496565b5b509050620004c39190620004c7565b5090565b620004ec91905b80821115620004e8576000816000905550600101620004ce565b5090565b90565b610ef380620004ff6000396000f3fe608060405234801561001057600080fd5b506004361061004c5760003560e01c806301cda3ac14610051578063524a046e146102d1578063528c87d2146104e2578063e0f6ef8714610676575b600080fd5b6102cf6004803603608081101561006757600080fd5b810190808035906020019064010000000081111561008457600080fd5b82018360208201111561009657600080fd5b803590602001918460018302840111640100000000831117156100b857600080fd5b91908080601f016020809104026020016040519081016040528093929190818152602001838380828437600081840152601f19601f8201169050808301925050505050505091929192908035906020019064010000000081111561011b57600080fd5b82018360208201111561012d57600080fd5b8035906020019184600183028401116401000000008311171561014f57600080fd5b91908080601f016020809104026020016040519081016040528093929190818152602001838380828437600081840152601f19601f820116905080830192505050505050509192919290803590602001906401000000008111156101b257600080fd5b8201836020820111156101c457600080fd5b803590602001918460018302840111640100000000831117156101e657600080fd5b91908080601f016020809104026020016040519081016040528093929190818152602001838380828437600081840152601f19601f8201169050808301925050505050505091929192908035906020019064010000000081111561024957600080fd5b82018360208201111561025b57600080fd5b8035906020019184600183028401116401000000008311171561027d57600080fd5b91908080601f016020809104026020016040519081016040528093929190818152602001838380828437600081840152601f19601f820116905080830192505050505050509192919290505050610694565b005b6104cc600480360360a08110156102e757600080fd5b810190808035906020019064010000000081111561030457600080fd5b82018360208201111561031657600080fd5b8035906020019184600183028401116401000000008311171561033857600080fd5b91908080601f016020809104026020016040519081016040528093929190818152602001838380828437600081840152601f19601f8201169050808301925050505050505091929192908035906020019064010000000081111561039b57600080fd5b8201836020820111156103ad57600080fd5b803590602001918460018302840111640100000000831117156103cf57600080fd5b91908080601f016020809104026020016040519081016040528093929190818152602001838380828437600081840152601f19601f8201169050808301925050505050505091929192908035906020019064010000000081111561043257600080fd5b82018360208201111561044457600080fd5b8035906020019184600183028401116401000000008311171561046657600080fd5b91908080601f016020809104026020016040519081016040528093929190818152602001838380828437600081840152601f19601f820116905080830192505050505050509192919290803590602001909291908035906020019092919050505061091b565b6040518082815260200191505060405180910390f35b61050e600480360360208110156104f857600080fd5b8101908080359060200190929190505050610b15565b60405180878152602001806020018681526020018581526020018060200180602001848103845289818151815260200191508051906020019080838360005b8381101561056857808201518184015260208101905061054d565b50505050905090810190601f1680156105955780820380516001836020036101000a031916815260200191505b50848103835286818151815260200191508051906020019080838360005b838110156105ce5780820151818401526020810190506105b3565b50505050905090810190601f1680156105fb5780820380516001836020036101000a031916815260200191505b50848103825285818151815260200191508051906020019080838360005b83811015610634578082015181840152602081019050610619565b50505050905090810190601f1680156106615780820380516001836020036101000a031916815260200191505b50995050505050505050505060405180910390f35b61067e610d19565b6040518082815260200191505060405180910390f35b600073ffffffffffffffffffffffffffffffffffffffff16600360003373ffffffffffffffffffffffffffffffffffffffff1673ffffffffffffffffffffffffffffffffffffffff16815260200190815260200160002060000160009054906101000a900473ffffffffffffffffffffffffffffffffffffffff1673ffffffffffffffffffffffffffffffffffffffff16141561077c576040517f08c379a0000000000000000000000000000000000000000000000000000000008152600401808060200182810382526024815260200180610e9b6024913960400191505060405180910390fd5b610784610d1f565b6040518060c001604052803373ffffffffffffffffffffffffffffffffffffffff16815260200186815260200185815260200184815260200183815260200160006040519080825280602002602001820160405280156107f35781602001602082028038833980820191505090505b50815250905080600360003373ffffffffffffffffffffffffffffffffffffffff1673ffffffffffffffffffffffffffffffffffffffff16815260200190815260200160002060008201518160000160006101000a81548173ffffffffffffffffffffffffffffffffffffffff021916908373ffffffffffffffffffffffffffffffffffffffff160217905550602082015181600101908051906020019061089c929190610d6b565b5060408201518160020190805190602001906108b9929190610d6b565b5060608201518160030190805190602001906108d6929190610d6b565b5060808201518160040190805190602001906108f3929190610d6b565b5060a0820151816005019080519060200190610910929190610deb565b509050505050505050565b6000610925610e38565b6040518060e00160405280600054815260200188815260200185815260200184815260200187815260200186815260200160006040519080825280602002602001820160405280156109865781602001602082028038833980820191505090505b5081525090508060046000805481526020019081526020016000206000820151816000015560208201518160010190805190602001906109c7929190610d6b565b50604082015181600201556060820151816003015560808201518160040190805190602001906109f8929190610d6b565b5060a0820151816005019080519060200190610a15929190610d6b565b5060c0820151816006019080519060200190610a32929190610deb565b5090505060008081548092919060010191905055507fc5d4861449b1cd27a693d2d1feb76f9c3605c08419dbd5e5445942aa9cbf2c32876000546040518080602001838152602001828103825284818151815260200191508051906020019080838360005b83811015610ab2578082015181840152602081019050610a97565b50505050905090810190601f168015610adf5780820380516001836020036101000a031916815260200191505b50935050505060405180910390a16004600060016000540381526020019081526020016000206000015491505095945050505050565b6004602052806000526040600020600091509050806000015490806001018054600181600116156101000203166002900480601f016020809104026020016040519081016040528092919081815260200182805460018160011615610100020316600290048015610bc75780601f10610b9c57610100808354040283529160200191610bc7565b820191906000526020600020905b815481529060010190602001808311610baa57829003601f168201915b505050505090806002015490806003015490806004018054600181600116156101000203166002900480601f016020809104026020016040519081016040528092919081815260200182805460018160011615610100020316600290048015610c715780601f10610c4657610100808354040283529160200191610c71565b820191906000526020600020905b815481529060010190602001808311610c5457829003601f168201915b505050505090806005018054600181600116156101000203166002900480601f016020809104026020016040519081016040528092919081815260200182805460018160011615610100020316600290048015610d0f5780601f10610ce457610100808354040283529160200191610d0f565b820191906000526020600020905b815481529060010190602001808311610cf257829003601f168201915b5050505050905086565b60005481565b6040518060c00160405280600073ffffffffffffffffffffffffffffffffffffffff16815260200160608152602001606081526020016060815260200160608152602001606081525090565b828054600181600116156101000203166002900490600052602060002090601f016020900481019282601f10610dac57805160ff1916838001178555610dda565b82800160010185558215610dda579182015b82811115610dd9578251825591602001919060010190610dbe565b5b509050610de79190610e75565b5090565b828054828255906000526020600020908101928215610e27579160200282015b82811115610e26578251825591602001919060010190610e0b565b5b509050610e349190610e75565b5090565b6040518060e00160405280600081526020016060815260200160008152602001600081526020016060815260200160608152602001606081525090565b610e9791905b80821115610e93576000816000905550600101610e7b565b5090565b9056fe53746f72653a2061646455736572202d205573657220616c726561647920657869737473a265627a7a72315820dc0c6cf1ccb9d849d250420ec0039caa7ae14ec23d73a0f2142e16ca7c22aa2a64736f6c63430005100032426c7565746f6f746820746563686e6f6c6f6779206c65747320796f7520636f6e6e656374206974207769746820636f6d70617469626c65206465766963657320776972656c6573736c7920486967682d7175616c6974792041414320617564696f206f666665727320696d6d657273697665206c697374656e696e6720657870657269656e6365204275696c742d696e206d6963726f70686f6e6520616c6c6f777320796f7520746f2074616b652063616c6c73207768696c6520776f726b696e67416972706f647320576972656c65737320426c7565746f6f7468204865616470686f6e65733220416972706f647320576972656c65737320426c7565746f6f7468204865616470686f6e65733120416972706f647320576972656c65737320426c7565746f6f7468204865616470686f6e6573",
  "source": "// SPDX-License-Identifier: MIT\r\npragma solidity >=0.4.22 <=0.8.17;\r\n\r\ncontract Store {\r\n    struct User {\r\n        address id;\r\n        string username;\r\n        string name;\r\n        string billingAdd;\r\n        string password;\r\n        uint256[] orderList;\r\n    }\r\n\r\n    struct Review {\r\n        address user;\r\n        uint256 rating;\r\n        string review;\r\n    }\r\n\r\n    struct Product {\r\n        uint256 id;\r\n        string name;\r\n        uint256 price;\r\n        uint256 quantity;\r\n        string description;\r\n        string imgUrl;\r\n        uint256[] reviewIDs;\r\n    }\r\n\r\n    struct OrderProduct {\r\n        uint256 productID;\r\n        uint256 quantity;\r\n    }\r\n\r\n    struct Order {\r\n        uint256 id;\r\n        User user;\r\n        uint256 amount;\r\n        string shippingDetails;\r\n        uint256 productCount;\r\n        mapping(uint256 => OrderProduct) products;\r\n    }\r\n\r\n    uint256 public productCount = 0;\r\n    uint256 orderCount = 0;\r\n    uint256 reviewCount = 0;\r\n\r\n    mapping(address => User) userList;\r\n    mapping(uint256 => Product) public productList;\r\n    mapping(uint256 => Order) orderList;\r\n    mapping(uint256 => Review) reviewList;\r\n\r\n    function addUser(\r\n        string memory _username,\r\n        string memory _name,\r\n        string memory _billingAdd,\r\n        string memory _password\r\n    ) public {\r\n        require(\r\n            userList[msg.sender].id != address(0),\r\n            \"Store: addUser - User already exists\"\r\n        );\r\n        User memory user = User(\r\n            msg.sender,\r\n            _username,\r\n            _name,\r\n            _billingAdd,\r\n            _password,\r\n            new uint256[](0) // oderList\r\n        );\r\n\r\n        userList[msg.sender] = user;\r\n    }\r\n\r\n    constructor() public {\r\n        addProduct(\r\n            \"Airpods Wireless Bluetooth Headphones\",\r\n            \"Bluetooth technology lets you connect it with compatible devices wirelessly High-quality AAC audio offers immersive listening experience Built-in microphone allows you to take calls while working\",\r\n            \"/imgUrls/airpods.jpg\",\r\n            14999,\r\n            20\r\n        );\r\n        addProduct(\r\n            \"1 Airpods Wireless Bluetooth Headphones\",\r\n            \"Bluetooth technology lets you connect it with compatible devices wirelessly High-quality AAC audio offers immersive listening experience Built-in microphone allows you to take calls while working\",\r\n            \"/imgUrls/airpods.jpg\",\r\n            14999,\r\n            20\r\n        );\r\n        addProduct(\r\n            \"2 Airpods Wireless Bluetooth Headphones\",\r\n            \"Bluetooth technology lets you connect it with compatible devices wirelessly High-quality AAC audio offers immersive listening experience Built-in microphone allows you to take calls while working\",\r\n            \"/imgUrls/airpods.jpg\",\r\n            14999,\r\n            20\r\n        );\r\n    }\r\n\r\n    event ProductAdded(string name, uint256 id);\r\n\r\n    function addProduct(\r\n        string memory _name,\r\n        string memory _description,\r\n        string memory _imgUrl,\r\n        uint256 _price,\r\n        uint256 _quantity\r\n    ) public returns (uint256) {\r\n        Product memory product = Product(\r\n            productCount,\r\n            _name,\r\n            _price,\r\n            _quantity,\r\n            _description,\r\n            _imgUrl,\r\n            new uint256[](0)\r\n        );\r\n\r\n        productList[productCount] = product;\r\n        productCount++;\r\n        emit ProductAdded(_name, productCount);\r\n        return productList[productCount - 1].id;\r\n    }\r\n\r\n    // function addReview(\r\n    //     uint256 _productId,\r\n    //     uint256 _rating,\r\n    //     string memory _review\r\n    // ) public {\r\n    //     require(\r\n    //         userList[msg.sender].id != address(0),\r\n    //         \"Store: addReview - User does not exist\"\r\n    //     );\r\n    //     require(\r\n    //         _productId < productCount || _productId > productCount,\r\n    //         \"Store: addReview - Product does not exist\"\r\n    //     );\r\n    //     Review memory review = Review(msg.sender, _rating, _review);\r\n    //     productList[_productId].reviews.push(review);\r\n    // }\r\n\r\n    // function placeOrder(\r\n    //     OrderProduct[] memory _products,\r\n    //     string memory _shippingDetails\r\n    // ) public {\r\n    //     require(\r\n    //         userList[msg.sender].id != address(0),\r\n    //         \"Store: placeOrder - User does not exist\"\r\n    //     );\r\n\r\n    //     require(\r\n    //         _products.length < 1,\r\n    //         \"Store: placeOrder - No products in order\"\r\n    //     );\r\n\r\n    //     require(\r\n    //         _products.length > productCount,\r\n    //         \"Store: placeOrder - Too many products\"\r\n    //     );\r\n\r\n    //     for (uint256 i = 0; i < _products.length; i++) {\r\n    //         require(\r\n    //             productList[_products[i].productID].id !=\r\n    //                 _products[i].productID,\r\n    //             \"Store: placeOrder - Product does not exist\"\r\n    //         );\r\n    //         require(\r\n    //             _products[i].quantity <\r\n    //                 productList[_products[i].productID].quantity,\r\n    //             \"Store: placeOrder - Product out of stock\"\r\n    //         );\r\n    //     }\r\n\r\n    //     uint256 _amount = 0;\r\n\r\n    //     for (uint256 i = 0; i < _products.length; i++) {\r\n    //         _amount +=\r\n    //             productList[_products[i].productID].price *\r\n    //             _products[i].quantity;\r\n    //         productList[_products[i].productID].quantity -= _products[i]\r\n    //             .quantity;\r\n    //     }\r\n\r\n    //     Order memory order = Order(\r\n    //         orderCount,\r\n    //         userList[msg.sender],\r\n    //         _amount,\r\n    //         _shippingDetails,\r\n    //         _products\r\n    //     );\r\n\r\n    //     orderList[orderCount] = order;\r\n    //     userList[msg.sender].orderList.push(orderCount);\r\n\r\n    //     orderCount++;\r\n    // }\r\n}\r\n",
  "sourcePath": "E:\\Semester 7\\Blockchain and Cryptography\\Project\\Blockchain-MERN-Ecommerce\\solidity\\contracts\\Store.sol",
  "compiler": {
    "name": "solc",
    "version": "0.5.16+commit.9c3226ce.Emscripten.clang"
  },
  "schemaVersion": "3.4.10",
  "updatedAt": "2022-11-27T15:00:12.822Z",
  "networkType": "ethereum",
  "devdoc": {
    "methods": {}
  },
  "userdoc": {
    "methods": {}
  }
}