{
  "contractName": "Store",
  "abi": [
    {
      "inputs": [],
      "payable": false,
      "stateMutability": "nonpayable",
      "type": "constructor"
    },
    {
      "anonymous": false,
      "inputs": [
        {
          "indexed": false,
          "internalType": "address",
          "name": "",
          "type": "address"
        },
        {
          "indexed": false,
          "internalType": "uint256",
          "name": "",
          "type": "uint256"
        },
        {
          "indexed": false,
          "internalType": "uint256",
          "name": "",
          "type": "uint256"
        }
      ],
      "name": "OrderPlaced",
      "type": "event"
    },
    {
      "anonymous": false,
      "inputs": [
        {
          "indexed": false,
          "internalType": "uint256",
          "name": "",
          "type": "uint256"
        },
        {
          "indexed": false,
          "internalType": "string",
          "name": "",
          "type": "string"
        }
      ],
      "name": "ProductAdded",
      "type": "event"
    },
    {
      "anonymous": false,
      "inputs": [
        {
          "indexed": false,
          "internalType": "uint256",
          "name": "",
          "type": "uint256"
        },
        {
          "indexed": false,
          "internalType": "string",
          "name": "",
          "type": "string"
        },
        {
          "indexed": false,
          "internalType": "uint256",
          "name": "",
          "type": "uint256"
        }
      ],
      "name": "ReviewAdded",
      "type": "event"
    },
    {
      "anonymous": false,
      "inputs": [
        {
          "indexed": false,
          "internalType": "address",
          "name": "",
          "type": "address"
        },
        {
          "indexed": false,
          "internalType": "string",
          "name": "",
          "type": "string"
        }
      ],
      "name": "UserAdded",
      "type": "event"
    },
    {
      "constant": false,
      "inputs": [
        {
          "internalType": "string",
          "name": "_name",
          "type": "string"
        },
        {
          "internalType": "string",
          "name": "_description",
          "type": "string"
        },
        {
          "internalType": "string",
          "name": "_imgUrl",
          "type": "string"
        },
        {
          "internalType": "uint256",
          "name": "_price",
          "type": "uint256"
        },
        {
          "internalType": "uint256",
          "name": "_quantity",
          "type": "uint256"
        }
      ],
      "name": "addProduct",
      "outputs": [
        {
          "internalType": "uint256",
          "name": "",
          "type": "uint256"
        }
      ],
      "payable": false,
      "stateMutability": "nonpayable",
      "type": "function"
    }
  ],
  "bytecode": "0x6080604052600060055534801561001557600080fd5b506100756040518060600160405280602581526020016109896025913960405180610100016040528060c381526020016108c660c391396040518060600160405280603a81526020016109ae603a9139613a97601461017860201b60201c565b506100f26040518060400160405280601a81526020017f6950686f6e652031312050726f203235364742204d656d6f727900000000000081525060405180610100016040528060c381526020016108c660c391396040518060800160405280604f8152602001610877604f9139613a97601461017860201b60201c565b506101726040518060400160405280601a81526020017f43616e6e6f6e20454f53203830442044534c522043616d65726100000000000081525060405180610100016040528060c381526020016108c660c3913960405180612d000160405280612cdb81526020016109e8612cdb9139613a97601461017860201b60201c565b506103b5565b60006040518060e00160405280600554815260200187815260200184815260200183815260200186815260200185815260200160008152506003600060055481526020019081526020016000206000820151816000015560208201518160010190805190602001906101eb929190610310565b506040820151816002015560608201518160030155608082015181600401908051906020019061021c929190610310565b5060a0820151816005019080519060200190610239929190610310565b5060c082015181600601559050506005600081548092919060010191905055507f259101de1f87b04b9ee0332ce5e3cc508014004bf283424aead6cd8692f5cf98600554876040518083815260200180602001828103825283818151815260200191508051906020019080838360005b838110156102c45780820151818401526020810190506102a9565b50505050905090810190601f1680156102f15780820380516001836020036101000a031916815260200191505b50935050505060405180910390a1600160055403905095945050505050565b828054600181600116156101000203166002900490600052602060002090601f016020900481019282601f1061035157805160ff191683800117855561037f565b8280016001018555821561037f579182015b8281111561037e578251825591602001919060010190610363565b5b50905061038c9190610390565b5090565b6103b291905b808211156103ae576000816000905550600101610396565b5090565b90565b6104b3806103c46000396000f3fe608060405234801561001057600080fd5b506004361061002b5760003560e01c8063524a046e14610030575b600080fd5b61022b600480360360a081101561004657600080fd5b810190808035906020019064010000000081111561006357600080fd5b82018360208201111561007557600080fd5b8035906020019184600183028401116401000000008311171561009757600080fd5b91908080601f016020809104026020016040519081016040528093929190818152602001838380828437600081840152601f19601f820116905080830192505050505050509192919290803590602001906401000000008111156100fa57600080fd5b82018360208201111561010c57600080fd5b8035906020019184600183028401116401000000008311171561012e57600080fd5b91908080601f016020809104026020016040519081016040528093929190818152602001838380828437600081840152601f19601f8201169050808301925050505050505091929192908035906020019064010000000081111561019157600080fd5b8201836020820111156101a357600080fd5b803590602001918460018302840111640100000000831117156101c557600080fd5b91908080601f016020809104026020016040519081016040528093929190818152602001838380828437600081840152601f19601f8201169050808301925050505050505091929192908035906020019092919080359060200190929190505050610241565b6040518082815260200191505060405180910390f35b60006040518060e00160405280600554815260200187815260200184815260200183815260200186815260200185815260200160008152506003600060055481526020019081526020016000206000820151816000015560208201518160010190805190602001906102b49291906103d9565b50604082015181600201556060820151816003015560808201518160040190805190602001906102e59291906103d9565b5060a08201518160050190805190602001906103029291906103d9565b5060c082015181600601559050506005600081548092919060010191905055507f259101de1f87b04b9ee0332ce5e3cc508014004bf283424aead6cd8692f5cf98600554876040518083815260200180602001828103825283818151815260200191508051906020019080838360005b8381101561038d578082015181840152602081019050610372565b50505050905090810190601f1680156103ba5780820380516001836020036101000a031916815260200191505b50935050505060405180910390a1600160055403905095945050505050565b828054600181600116156101000203166002900490600052602060002090601f016020900481019282601f1061041a57805160ff1916838001178555610448565b82800160010185558215610448579182015b8281111561044757825182559160200191906001019061042c565b5b5090506104559190610459565b5090565b61047b91905b8082111561047757600081600090555060010161045f565b5090565b9056fea265627a7a72315820e2eef45bf2081681f99512b63fedef994b060198f3bc8ec47b891d2f009d24cc64736f6c6343000510003268747470733a2f2f696d616765732e70726963656f79652e706b2f6170706c652d6970686f6e652d78692d70616b697374616e2d70726963656f79652d6f696b316f2d353030783530302e77656270426c7565746f6f746820746563686e6f6c6f6779206c65747320796f7520636f6e6e656374206974207769746820636f6d70617469626c65206465766963657320776972656c6573736c7920486967682d7175616c6974792041414320617564696f206f666665727320696d6d657273697665206c697374656e696e6720657870657269656e6365204275696c742d696e206d6963726f70686f6e6520616c6c6f777320796f7520746f2074616b652063616c6c73207768696c6520776f726b696e67416972706f647320576972656c65737320426c7565746f6f7468204865616470686f6e657368747470733a2f2f726562656c746563682e636f6d2f77702d636f6e74656e742f75706c6f6164732f323032312f31302f4d4d4537332e6a7067646174613a696d6167652f6a7065673b6261736536342c2f396a2f34414151536b5a4a5267414241514141415141424141442f3277434541416f484342595746526757466859594742675a4842346148526f61485277634842776648426f5a48434563485277634953346d48423472487877614a6a676d4c4338784e5455314769513751447330507934304e5445424441774d454138504768455247445168495345304d5451784e4451304e4451304e4451304e4451304e4451304e4451304e4451304e4451304d5455304e4459304e4451304e445130507a51784e4438784e4451304d662f4141424549414f454134514d4249674143455145444551482f7841416341414142425145424151414141414141414141414141414141674d454251594841516a2f784142494541414341414d454267594842515548417755414141414241674144455151534954454651564668635945474970476873664148457a4a4355734852596e4b436b7545556f724c433852556a4a554e54732b497a4e4e496b4e55534438762f45414263424151454241514141414141414141414141414141414141424167502f78414165455145424151454141674944414141414141414141414141415245434d55456855524a6863662f61414177444151414345514d5241443841374e42424241454545454151515151424242424145454545415151515142424242416552556158365257657a4b544e6d4b434b4334434331546b4b5677346d67337857644f756b50374e4b434961545a6c5175315648744e787941336d75714f4f57346c7869466345314965754a323367613169794a613648705470384c724d726b366c6c7967535476615a5444694b62673275646f5070765a56582b386e7a3264694351386d61417548737141704e4e704a4e545849554134322b6a56502f414d644f5578783467776a2b7a52716c7550757a50717358453133715a3039734333535a7264623261704d463756685663595662656c736749575759716743705a73434e7755343374314f5563426252372b373638666a45457252396f4c4447625458575a5476454d4e6448746e7061615335426c6831776f704e325a53754c4e515554444a5455355670485437467065524e565753624c6138415141796b3469755663343441396c73396c6b305a456d54473173416278316e484a4273696e54533877484d4666686f41414e67706c444458314e42487a6a6f6a703561724d345a484c53366973707953704777664164363836355233666f3170325862624f6b2b565736315156507449777a56743437785136346c69797269434343496f6767676743434343414949494941676769707466534779536d75544c5449522f68615967626d43616941746f497250376473744b2f744d696d33316948357843746654437779785672536d775861755364674341314f34514767676a43547653504949724a6b7a587a78656b70634e37343434367134474b75663655377462306d574e696959575938325256707a69346d756e77527a6e5258704e52324b7a70515158537761564d4537454543363130425659673146474f527253483533704e6b673057524e59374b6f4f32684e495961333045633666306d4833624c586a4d703449595966306c7a64566d51635a6a482b515177324f6d783454484c4a767048744f71564a586a65622b5952426e395072584e426c6b53465677564c4b7268714d4b4736544d4f4f4f644959617a50532f70442b30577561395464445846334b7541376354785978544453413377336145444d7a62574a375457476a4945615a544630694963585353375972445a34535a45426472704e4e734f6a5369307a455a7779544569773261387833437679674332546d64697a5a6e567347794972434a3036585349557730674758574f6d656776537057665073784f44714a69374c79454b334d71792f6c6a6d4474574c373066572f31476b724d354e415a6751384a674d76486d77504b4a566a36656767676a4c5167676767434343434138686d31576c5a616c335a56555a6c6a514346545a6756537a454256424a4a794141715359355830673032383969354a43314e7866685855535069497850476d714c496c7546394e656d6672564d717a73794a6a65624657665664464d56584f757331472b4f56764a4a4a366933646c516e5a7635474c6533577342715671633662427669585a744873316e65306c656f6c545339523255653056726753426a5458534e4d714f545a6e6b75576c506752374e417a4e745571706f314e75484b4c7a524c436370716142514c78705147757a45396c59713757716a4a7171514756686867525545624350455247742b6c357a716f5a6a57364b3853425876674c625352736371743161506c65513354335952525370386d6d434d434e61724c4f33577750687169736d4d5444736b6457417568706e7133567630313149466679696e6448716154706b672f4e2f78696d454c457a455a307771523954674943362f744e766748622b6b654853543746373472306244587a2f544d646b654f78714f5079674a36323932494243557273502f6c46343069365561754e327537566c4759737a64635265326d31346d674a366c427a3377476736446f6f6c576f6f464e7375663346363654536876475747774c667076687179614d6d57684761636d4e6e557539395a6a326962666167556f724b39775577797069616d70706d5a6374322f797a326a36524953787671576e41376630674e78624f69466c5635335565356673686c3358595557664e57577771613178444847707831524850516d7a2b74436c6e75545a38327a7252735a5257577a70577462784a527131314664654a794a6b7a317944675965797739303147416255635273694d39756d4a654265617438315945754c357053724376574e435255375445585771733351327a744b6c735a6b3238396e744539697249552f7557514b56716c626a5836307a6f4d39635a4c5261597677487a2b6b504a707561467543633455493073437255434e5338674247436d6777477946614b49362b494f585a6a465242306970414a414d514a4e676438564742313675324e48506c3055786e707451784b6b71646f4a42375241576c68304f6945463854774e42786f49696e525a443370706d767256354255734b476f716c4152544f6f4f46496154534d31666676626d4150666e33772b756d47393542784249376a5878674c6978644f4a396d622b37744e70744336316d76697032556447726c756a6664447653656c706d6952506c47537a4269726b395133564c4738534264366f4a726c68716a6c4c3651522f627273363472345677686d624e55416c4c704f4e4b45444d4548754a484f4a69362b6e624e613563775870626f363755594d4f30474a4d664b4e67365132697a75737953356c754b564979616d70686b796e5963493762364e4f6e62572f316b716371724e6c674d4375547154516d6879494a57744d4f734d6f6c69783047434343497244394f394c564b32564469614e4d49314c377138794b6e6342746a4261566d30776966306a306f71572b30686868665541355969576770584c55634d34704c5931383155397636566a555a717330586f31586c7a37544d656949374b55487445674336443849497950474b7166614a31774d374f7145465a616d6f44476c4b497574567255746c68544d784f6d324359474c4930784363796a46613861474937325279627a6c3249774454474c45634b6e3652513159354a634a4c4f6f433975556175655862736872536f3635693530664c433561387a74697030794f755949714a6b533543395749557777375a3572556f43427967754a4a584748466c78486159316452356653487055787a67414477422b734550716b503265794d2b346254386f637338756771347164672b6350504f374f77664c7a584c4d41354c7379494b67564f302b6151354c744b6a4e5164354e4e52477078724950496236776957325535624f66394364706a32342b797565576579674a4f334d6d68337746374a6e3179414f716764545471675966336c634b567074593771546b5a68694b6f65746956636970794e346d6e56315935484775635a466c596530704f72444a6a3849464c31776246427254453577395a72557947694d77494f495533616e375148566c6f4e6e7448747147786b7531305663506e55675547716d73314f2f6844632b5772436a4163346f354f6e576f4c36724d72674741754f782b7956397762543230784d7864496f39626a456b5946586f4772735668315734445a695943446264484147713452426c6d34344a3234374b61347362526173347172524f674c753172315447616e4c6a456e2b316e41756d6a447350624556706f4a72415032545230796265754a6575307647717142657251466d4946546461672b79646b65766f576663395a36747267566d725556756a4e3774616c42644a7655706857735765694c59676c764c65364c7a6f344c796b6e4c31466d4b526459395539634545567949695331726b6c6b6d336d76705a7a4a3958636f433371586b6768773146553367325652694b47494d396264457a705368706b746b424e42656f44576c6146613142707149454e575a635976644d7a3555784361724d6e4d34597a466b69535343487633377255646d596f61307775746a6a46565a5a665769684871726b35445442732f6e33527450517859705174383967354c4b6a6572436e717374384b784f326e5570713631646b5a5870464a6f6c64782f587572456a3055577870656b6250516d3635615752714e3954556471716677694a566a36566767676a4c543533394954744c306c617275525a5364344d715763615a346e584761545368476f6a483354545873456176306e4a2f69566f772f302f7744616c2f534d61316c4a38392b5561525979744f415571376a69716b64774268713036594a79644478526766346f72545a7a352b7650766870354d5557396e3070746452393163663371694946767456397169397a2b6746496273306774584c43474a6e6e746747387a44345141643065574f555762415a5a3177484d786657524654724b74397337357948336672574162735769437742633342544c336a793152594655544245356d6738596976626669646546366e686e48695770506a58752b766e76424d4f73784f77632b667a454b537a6b2b2b6c66766566504f7170524c6579612f64556e774f327662747153352b79564e4136412f433135547131414564704758436777386d6a587a433147346a7a6c3570315953306c6c397057586944323459304177714b48554c677a5961777a35594c6858436a4e355a764b4e374e4c4a4135302b51585a74507a5648574b7a46324f426a2b49654a723959703158777a77494f564d686e54336141612f595776766d475a3649773679675578464d6c726b313167514e674a46574f5367474a6774646e6d3567796e4e4d36585352536d4f5270714270776948624c4f7948614b314247645468577039343633784f4a4145566c446d79797461456e494848724858526e593951592b794d6339734d4d34493141415a3036716766415065626675315a46316e47366748414166797258385452476e5672556174754a4738437542335a7744737963786f4d61307742396f4461784f58412f70454a3754714d4f6f344f2b7572336d5032694d74666678684e6f6b586754555647764a647971426e6c71384b7441522f57777057694669445135694c48526b745761726b42566f53436156474f584f6e62416572616a57364d44747a37424331596e4e6d37535036434930394163567870323033387151374a656f382b4547696a4e2b325477623959523639686a56687a4938443452304c526d6a4a5479556430774a7442646c5a72393255694f70524b305a6757784630345a3070574d6a7053554775414b42564b7352515933327a504164776749746f74416d4b42515941314e53546a585754582b6b542b684e70564c665a44713963693444346a6342774756577a69712f5a366f674f525a696456526b42777149732b6a724262585a32706c506b6a6c367850724548303742424247566347394a532f346c502b366e2b326b55566d7331527979703335343674765058702b6e3642744a5477666854682f30303367786c486d6c425374636a744845622f4f4f63616a426232514456584d354555707277783761664f49466f7377466162386557772b634248737a53425068326261356d76504458454f5a616d6368525671344b41435361317941474a7a69744a4e6b5559303247494d6e52374f616e426475733849764c4c59436931664669505a464b4469526d642b5847477a4d766d6969397777516669313871386f4d6f6f5655464557764156377a6857475a6f6d4e6a635046694d4f33367866534e4773325a3141304747594a4758574f4132374e735053374b6976526868537434557152536f4f764d654d426c7632655a7451632f774259445a706e784b65422f7743556174776772556743364e7674595670713235345a5a5a77692f4b4c4768464b436d4a77505677774e6165314257555a4a6f7a57397841656e356751496c5766546a7267316275776d712f6b634f6e596f692f6579797a6b517674635341634e347735346234695772526d424a6f52694e3478417a7762574458484d51553759644f4953434b6f2b707062584732594937464471396c304a3252506e464a6c34764c57625432706b6f65726e72576d4d784374613636736a413039754d6e616446455972566137665a50412f5552476c57325a4c494456463332635343763347474b386a5461444546336139483055764b6354557a714252304748747055304750744b575857534468455354616d5155427176776b31484c5a353277332f61565465725273377736763567754666744c546549624c71783248752b6734355157535571624f4661726872703878396636514934624564677a3738743747476e5375427a3734686c3252764e444652506d5336645a64654c4b4d4b6a6458495a596e4d306855703630494979772b46427272584d38643164537753356f595647766e6a76327473475137596266716d76756b395a61363952726d64353334593067504c5a4a4246345a37366c6d7a7153507274326d6768796a737a33347861567a7878316b667772546d4d4474473078436e5337725647546478382b636f4938763965384163615868767938593941757356374f666b78496b7072686a53536b46534b775664576654746f555377726743577864614b51564a464749494e635267646f774f554e47637a7456727463714b4c71357361414442635779774177696c6c32673756626a675973624a4e445647494f7731355a5a6a365144726a714c775069596b6149702b3032656e2b764a2f335545524a72554362366a76616e79682f5150384133466e4f32664a50624e534950714f4343434d7134623652477536536e48374d762f625865497a636d554871447134623636384f4f4f636148306d442f455a755873532b5855472f444c776a50574137754f5238396b616a4e4e576a5248776b6b3838642b2f56737a69585a37496c6b566d63715878444d6361617269382f61625765714d41536243544d56456163314d505a4977494e4d5344743248566963304663354b76576c373759497462713544716a4f6e4159655446524952587444586d36713533546855625770712b794f6459745a6b704a5368727746334f75414879706d4d2f47433157784c504c72774f58577847412b30633977424f59696a6e5461335a6c6f46356d36307552553351446b3833575273584e747767717a46746559415a51435378674a73776b444d476930367a6d7577444b4963363053317a5a3537627a3674507970316a7a6149467074727a44566d7271726b41506855444256334343576b51784a5732734d5553556e334a61562f4d774a3734562b337a6a37353746384b52484444554378335a4469636f6357584d4f5631655637786770786257347a434869694476554139384f70625670526b4b37304a492f493571547676386f5a57777a44372f7743365072432f37506e6172723978676e776e4a4d444b615858415567557a5865554f4f736d7549726b597272525a564b346745477547726b6452345132796c534c79736a444548487447766e456c4c534770667058553447422b2b426e393459386452597a746f736a4a694b6b61396f3437742b554d6871596a4c772f534e5a613076734254476d665678725531714d436c4b627144566b4d37627248644a4977427a477975524832544642496e6734484459646d342f5a33366f666d535177495036313238505043724742382b61525a324f6455554f597935616a744970326342476644666e2b6f55746a4c656a632f71496e6b384d65796e3038596374396c717452375178346a586a38393142724a68575236696d794e4d4a456b3036757a4b744d6a74336a4c586c756a313171434f2f6673472f774135314953326f3750412b6177736e586c545871413344577877383067796573793170456d31325568456649423134306244737868466c5864544930507a693230724d425251784635797052527143304f4f2f4159774664614c456a41336c46646f7750614968725a3768706e6459414858645a413144326a73697a4d51703262483753446d4a5377446474465a61376c596a7463397838357772517131655658455658786774433156426a51722f4d3330385965304b6c4a306b6248556434675071474343434d4e7546656b372f7742796d5959584a655034523950434d33594456715a6b346339573348366d4e4a3655782f69545a3479356667773159786e64474f4676755467696c7339336b2f686a555a70727050624337725a315056576c664f2f5073326d4a4e6c5549746133516f72584b6c426e464c6f685337744d624d6e79506c7969567032656271796c397038534e6f7251446d33684650305a4e717673316f6d43386947374c52766666507262674b4d333452454235724f785a69575a6a566d4f5a68375344414d4a612b784b467762327231323574586b4244456f59786c5571536b536b6c3375486a2b6b4e79457245755a4d434c576c536341426d54424b655246566173516f37493957314141454961484a6d4b6f7034467a56755169746d7a53446a526e475a4e4369665a555a4667633278414f5654316f6157386575534144373879704c557777474a626b44545752445446394c306b674f4e7a387a6e776c30373474374462456330384347376c4e3774455935625339656f376e68565232416d4a4d7532763777442f414877472f65396f63694961586c766d735354466f514755382b2f6247593031306565554336565a4e593172395276695a6f6253315341704e66674a7154393176652b366364514d612b797a5664616968477352556e7735645a725464774a36754f7174776e50445770316a6e6e4532315341364534586c7a7156794e53575a7343344e514278474a3154756c656850557436784231474f492b452f534b61533134584e597858654d535638534f5931694561556c7173394d75587a587a753378486b7451353555783262443234474c75664c76436e66734f6f78555435643068715947745276316a6d5043435372757a506546637533413863546e723141714143534b56316f6b58484e42515a6a63447132594775326c4d7a44326a5831642f4c4137716a5a51345a784a744b41304f77397837746d3667776f4b45794e6466663267447a3532654d4b497054566e6963616254545763514150365154466f652f5a6c675458567831436c4d54487079476f3131444844647170553047306a66476b5472434e56414e31616b567836782b4c58486c73366c31365649596e69416a55586842596a6e7141315955476452657a5a747032776d31476f78344162503149486e575a4d507043592b536852333939664348464455784a774e634b3071546a585855373459516547756f4758434a464d79652f6673783837594e464f4f71682b7a2f4d385036492f36387237366678434747485558376f2f69654a4768503841755a57792b6e3853775a6654734545455962634c394c57476b54766b49663370676a4957755a64737a6258634c79555632362b743278732f54436c4c656a66465a303261706b33624748307a68496b6a62666273592f497871496430496c45472f487468677a4b3268332f30777a4469676f763739447a69626f76424634525632594734354f5a436a7463452b454b496f574870516775517446695157566b6c3452476d7a75737a6a4d64524e32316876703246676455543077516e59767969756b72697578617432416e77416747306c714153337370515579764d6130576f7947427254554d4b456945564c74566a713344415a4141594162414d4243703639564633466a785a71562f4b71646b657176564f3878416b76584159445a45695849616c61474746574c76513172526171343451593736764d32545546706249526542427a466350496a556143307563796573506272724277446e6e514e7842784d554f6d62555865704e51425166534939676e335855366a67654236703773597371792f6c4e644a7479724d51716356596565426a6d303253794f795a4d6a564235352b423578747447576f736c446d4d2b306a78556e6e476330394c705056766a464478792b593749745765566650414e4747415958674e6d5949354d434f4649695462506671426d525563523570794d533559366a4c384442687762716e76436473495236454e384a42355a4875696973734455492b79627649347233314557553757504f304848742f70554d57757a334a376f50654249346a727238346b576a33534e59383931504f496e7471654b59745335486e3359646d4a72717a784e495a62326465663352322b3739615678724571306577764c6271714e572f774454476b5243634f593265484462674f565455534c4f61413565484155393062427a4f634e7a6e716165506e6a43544d6f766e79654d4a556672426b7450506e487949655864544c4b6f504936395168704235506e76686437566e7a7a67467437433842347445336f794162585a677771444f6c7152576d6378526e33784262324534627472524f364d54522b3332564b47767270527271397454454830784242424757334766544f6c4c564961744b7953507975782f6d6a6e756d385a556a376a2f7741516a707670756b47395a4831556d6f5476507132413741335a484e72634b794a4a324d36666d4c4e34434e526d2b5339484e575750752f4b49306c4f6f334254332f724339427a4b71427377682b795766416a374a4835662f414d777149526c78366952502f5a54486e374d59796c3653706375394b50335433524473316e4a59443467562f4d437669597574447057716e6a386a4579526f33476d734844367861764e324d6c614a526f70703776675350436e62435a615648507a336545625332364a42316531694f4f73654859497a647473686c6d744b7163783531786d3074535a396a617a4d6b796974726f6351616a4978527a7074574c554171536144496349646d7a79777066616777466457366d7149724b50694557356273546a6d79664e313638306e65595578787073464f634e2b73432b7a6964703163496443334c716e3276626264384b6e6c552f6a335162617a5138373239375034703954454c547a316158392f77436b4c30506770334b4f3171756633544c694a704637307846324573655561394d2b7a55736464783853502b364c2f77444a44417a34672b48317044386e475a2b462f77446265475650575776784c33734246576c36587a73307a614642336b4736664745544636696271723259664b504e4b7638412b6e6b37517a66786777354d4856412b30333852694c5046525a72645252765069304d6631382b653357374d506e6d54444a38665062465a4a51564f377a766877445635376f3842382f544f43766e35774467504c7a78684d32634e666a3965556564336e6645616554762f414b386f43794a366966644869306162305a36494e6f74794f46716b6e7275327772555378784c69744e6974475730585a4a747061584a6c416d59784b4162616b6d74666441784a4f6f4178394639464f6a36574b7a724a536850744f394b46326f4154777741413141434a566b58734545455a615a66703330612f6237506355675445612f4c4c56753367434347497841494a46526b6148476c493470705051746f6b535a6954354d7957794d4a696c674370314e645a6571514642794a7a6a3653696a3659614e452b797a467055714c34473236445563314c446e466c53783831364c6d58585a6470714f63614c5279395a747844636d2f35423479646f5179706c446d68756e654e523569683578707448576f426b657656796267314d65526f654659306c584a736b49617978644c4a714f45656d7a786d787836555570436a416a563570476e7378566748477a7a7a45566b367a51315a3753554f34356a356943383959757255677074423774346a4d3664515863542b495a486a73506e66466c616253784655504c62776a4b615174623149715164596859336d716c354c5677466675342b47554d745a333171514e726455647230486644307877633055384b6a774e4f3647626d78414e35714f386b43493143307570694348665566635866694f736433732f657968566c6c33695759466c427832753578436735314f5a4f6f564f5a46664a63734567456c7a71535838327064556278586c6e46785a4a4e326a4e533842525658425547734c764f736d704f30356d3471616c5553684e574e575937575931504c3652577932764d376e4c324634444d387a345135614a686333516162547348314f71475a376743364d414d41496f56596856334f79572f7743387051643769473550747039356645512f4957374a5a6a6e4d594b507570526d50357a4c454d53506142325662386f4c4476416845714e70475a57564b5861352f694553713957764539704a382f724662616e7138746668713365543868452b63744656426d61446b504967656b5737333873503651465572375972784564303948485254396c6b6d624e576b366142554833457a43376d4f426266516537574e67396c51356f68347144386f61592b587655412b39353759503258654f7a39592b6d57304e5a7a6e496b6e6a4c512f4b49387a6f78596d7a736c6e502f774253662b4d4e4d664e7873376276504b48374a6f325a4d63496b737a48624255547245317771666847565361414450643946532b6a4e695846624a5a78776c4a2f347859326579704c464552564778514648644530786b756758517462436c3979486e754b46686b6935334650484d36384e516a6151515247684242424145454545423838656c626f34625061444d55645276412b7a324771384175324d726f65316534336b62492b6b4f6d576746746c6e5a4b41734153752f6174645664756f674856487a4c704b784e5a3570527167716344536c525569744e575242476f677871564d644a364f32362b767132505851595639354d67643547523548336f7532574f61364c306754645a57757575494f644476477348496a5959336d69744a4c4e584b6a436c394b3548614472553430506751514b353963704d78497172584c69336d525857754935574b53624f4b566f59675769304b3259423434784b74357a696a6d766a427669303438684471373453746c545954784a2b55527a4e4d4872346a73735564564741436a646843586d6b3636622f6f49722f58776c7252463078506163414b447a78684e6d6c4e4d6349754a4a70322b65516976446b2b635475416935703670544c4745316831366635534833612f366a4450594b7743726450566d6f68716943346d776756712f346d4a50414c4565743148626252527a4e536534443855654e753742455453732b3641677a4766336a6e325a666847324b796a324558356a4e71474134442b6737593742364e756831537474744337444951374d784e59627a696f34485a536c39474851557a51746f7443306b673156442f6d456252384150357155796a746f455a74616a32434343496f676767674343434341494949494167676767434343434149356e365565685174434e614a532f774234754c4166785961734f74774231477654494944343942655535424244413049506e766a53614e306a5571794e6464636a787a42477454724844574152307630682b6a6f54675a396e576a4445716f78473236426d7575376d4e57794f4a7a354d7951393167564937434e6f4f73527255783148522b6d5665695052484f6f2b792b7671485839334d62786a446c726f637577787a2b786155566864616e41355264797261394b42723637484f4934506e323134694b7865586d6b6d70555a52527a6a466a61375532734544654c796a6d4b67646f6974656168393338726657766a475635357847646f615a6f6b4f5a66784f507771663568434c30675a6d61654371766557506845614d46346b574f79504d726358716a326e596856556257647342347771524f582f4b7339342f464d4a63646775723267784c65524d6d553965354b6a4a466f46484a5146484963347542646e645a5a70494e2b5a6b3038673355326955707a62375278324141316879584c436967726e556b346c69637954724a68537146464141414e5168463445586d4e314272794c376c33666135437079306a307a416f766e56374f386a58794f766150736d4c2f414e4866517072644e39664f42466d5275426d4d506458596f316e67426a576b626f6630596d36546d3547585a705a41615a53676f506354557a306f4e6969684e63413330426f2b784a4a6c724b6c714652414656526b41504f65754a61736836584c43674b6f41414141414641414d4141426b496467676a4b69434343414949494941676767674343434341494949494167676767434343434149782f53376f4c4974696b674b6b77343170315364707069472b304f594d624343412b58756b6e51693057567146435271326e377047443873647769696b3231304e4458444d484d523963576d7a6f366c48565755357177424235474d50306739476c6d6e314d732b72625977767277427148586b784132526452785779615a576f7659625973665757643854336748587a31664b4c6253336f71744d7570564759625a624b362f6c61362f6359796473364d7a355662395541317a4665582f45744f2b4b59747632435473536e564746446d4d545148556349626d57615772454b7145444933524643746c635a546b354f76316a33314c6135362f6e2b6c596f76476d675a6d496a573553614a567a7579356e4951757764484a73306a316369305479646179337538336169306a59614a394639756d55766d585a55336e31737a6b46366f2f4d496d6d4d544e6d716f724e494f78426c7a2b4c6e5152744f696e6f377446745a5a31734453624f43434a5a714a6b77634d30552f4563615a4447736447364d2b6a3278324d6959454d32634d66577a614d774f3152374b6e6542586647776961596a574b794a4b525a637441694b4b4b7169674133434a4d4545525242424241454545454151515151424242424145454545415151515142424242414545454541515151514242424241454a624b43434178326c2f624d534e416530493867696a5669505949496749494949416767676743434343414949494941676767674343434341494949494167676767502f2f5a",
  "source": "// SPDX-License-Identifier: MIT\r\npragma solidity >=0.4.22 <=0.8.17;\r\n\r\n// pragma experimental ABIEncoderV2;\r\n\r\ncontract Store {\r\n    struct User {\r\n        address id;\r\n        string username;\r\n        string name;\r\n        string billingAdd;\r\n        string password;\r\n        uint256 orderCount;\r\n    }\r\n\r\n    struct Product {\r\n        uint256 id;\r\n        string name;\r\n        uint256 price;\r\n        uint256 quantity;\r\n        string description;\r\n        string imgUrl;\r\n        uint256 reviewCount;\r\n    }\r\n\r\n    struct Review {\r\n        address user;\r\n        uint256 rating;\r\n        string review;\r\n    }\r\n\r\n    struct Order {\r\n        uint256 id;\r\n        uint256 amount;\r\n        string shippingDetails;\r\n        uint256 orderProductCount;\r\n    }\r\n\r\n    struct OrderProduct {\r\n        uint256 id;\r\n        uint256 quantity;\r\n    }\r\n\r\n    // Mappings for handling user functionalities\r\n    mapping(address => User) userList;\r\n    mapping(address => mapping(uint256 => Order)) orderList;\r\n    mapping(address => mapping(uint256 => mapping(uint256 => Product))) orderProductList;\r\n\r\n    // Mappings for handling product functionalities\r\n    mapping(uint256 => Product) productList;\r\n    mapping(uint256 => mapping(uint256 => Review)) reviewList;\r\n\r\n    uint256 productCount = 0;\r\n\r\n    event UserAdded(address, string);\r\n    event ProductAdded(uint256, string);\r\n    event ReviewAdded(uint256, string, uint256);\r\n    event OrderPlaced(address, uint256, uint256);\r\n\r\n    constructor() public {\r\n        addProduct(\r\n            \"Airpods Wireless Bluetooth Headphones\",\r\n            \"Bluetooth technology lets you connect it with compatible devices wirelessly High-quality AAC audio offers immersive listening experience Built-in microphone allows you to take calls while working\",\r\n            \"https://rebeltech.com/wp-content/uploads/2021/10/MME73.jpg\",\r\n            14999,\r\n            20\r\n        );\r\n        addProduct(\r\n            \"iPhone 11 Pro 256GB Memory\",\r\n            \"Bluetooth technology lets you connect it with compatible devices wirelessly High-quality AAC audio offers immersive listening experience Built-in microphone allows you to take calls while working\",\r\n            \"https://images.priceoye.pk/apple-iphone-xi-pakistan-priceoye-oik1o-500x500.webp\",\r\n            14999,\r\n            20\r\n        );\r\n        addProduct(\r\n            \"Cannon EOS 80D DSLR Camera\",\r\n            \"Bluetooth technology lets you connect it with compatible devices wirelessly High-quality AAC audio offers immersive listening experience Built-in microphone allows you to take calls while working\",\r\n            \"data:image/jpeg;base64,/9j/4AAQSkZJRgABAQAAAQABAAD/2wCEAAoHCBYWFRgWFhYYGBgZHB4aHRoaHRwcHBwfHBoZHCEcHRwcIS4mHB4rHxwaJjgmLC8xNTU1GiQ7QDs0Py40NTEBDAwMEA8PGhERGDQhISE0MTQxNDQ0NDQ0NDQ0NDQ0NDQ0NDQ0NDQ0NDQ0MTU0NDY0NDQ0NDQ0PzQxND8xNDQ0Mf/AABEIAOEA4QMBIgACEQEDEQH/xAAcAAABBQEBAQAAAAAAAAAAAAAAAgMEBQYHAQj/xABIEAACAAMEBgYHBQUHAwUAAAABAgADEQQSITEFQVFhcYEGIpGhsfAHEzJCUsHRYnKCkuEUorLC8RUjJUNTs+IzNNIkNUSD8v/EABcBAQEBAQAAAAAAAAAAAAAAAAABAgP/xAAeEQEBAQEAAgIDAAAAAAAAAAAAARECMUEhURJhcf/aAAwDAQACEQMRAD8A7NBBBAEEEEAQQQQBBBBAEEEEAQQQQBBBBAeRUaX6RWezKTNmKCKC4CC1TkKVw4mg3xWdOukP7NKCIaTZlQu1VHtNxyA3muqOOW4lxiFcE1IeuJ23ga1iyJa6HpTp8LrMrk6llygSTvaZTDiKbg2udoPpvZVX+8nz2diCQ8maAuHsqApNNpJNTXIUA42+jVP/AMdOUxx4gwj+zRqluPuzPqsXE13qZ09sC3SZrdb2apMF7VhVcYVbelsgIWWYqgCpZsCNwU43t1OUcBbR7+768fjEErR9oLDGbTXWZTvEMNdHtnpaaS5Blh1wopN2ZSuLNQUTDJTU5VpHT7FpeRNVWSbLa8AQAyk4iuVc44A9ls9lk0ZEmTG1sAbx1nHJBsinTS8wHMFfhoAANgplDDX1NBHzjojp5arM4ZHLS6ispySpGwfAd6865R3fo1p2XbbOk+VW61QVPtIwzVt47xQ64liyriCCCIoggggCCCCAIIIIAggiptfSGySmuTLTIR/haYgbmCaiAtoIrP7dstK/tMim31iH5xCtfTCwyxVrSmwXauSdgCA1O4QGggjCTvSPIIrJkzXzxekpcN74446q4GKuf6U7tb0mWNiiYWY82RVpzi4munwRznRXpNR2KzpQQXSwaVME7EEC610BVYg1FGORrSH53pNkg0WRNY7KoO2hNIYa30Ec6f0mH3bLXjMp4IYYf0lzdVmQcZjH+QQw2Omx4THLJvpHtOqVJXjeb+YRBn9PrXNBlkSFVwVLKrhqMKG6TMOOOdIYazPS/pD+0Wua9TdDXF3KuA7cTxYxTDSA3w3aEDMzbWJ7TWGjIEaZTF0iIcXSS7YrDZ4SZEBdrpNNsOjSi0zEZwyTEiw2a8x3CvygC2TmdizZnVsGyIrCJ06XSIUw0gGXWOmegvSpWfPsxODqJi7LyEK3Mqy/ljmDtWL70fW/1GkrM5NAZgQ8JgMvHmwPKJVj6egggjLQggggCCCCA8hm1WlZal3ZVUZljQCFTZgVSzEBVBJJyAAqSY5X0g0289i5JC1NxfhXUSPiIxPGmqLIluF9NemfrVMqzsyJjebFWfVdFMVXOus1G+OVvJJJ6i3dlQnZv5GLe3WsBqVqc6bBviXZtHs1ne0leolTS9R2Ue0VrgSBjTXSNMqOTZnkuWlPgR7NAzNtUqpo1NuHKLzRLCcpqaBQLxpQGuzE9lYq7WqjJqqQGVhhgRUEbCPERGt+l5zqoZjW6K8SBXvgLbSRscqt1aPleQ3T3YRRSp8mmCMCNarLO3WwPhqismMTDskdWAuhpnq3Vv011IFfyindHqaTpkg/N/ximELEzEZ0wqR9TgIC6/tNvgHb+keHST7F74r0bDXz/TMdkeOxqOPygJ6292IBCUrsP/lF40i6UauN2u7VlGYszdcRe2m14mgJ6lBz3wGg6DoolWooFNsuf3F66TShvGWGwLfpvhqyaMmWhGacmNnUu99Zj2ibfagUorK9wUwypiamppmZct2/yz2j6RISxvqWnA7f0gNxbOiFlV53Ue5fshl3XYUWfNWWwqa1xDHGpx1RHPQmz+tClnuTZ82zrRsZRWWzpWtbxJRq11FdeJyJkz1yDgYeyw901GAbUcRsiM9umJeBeat81YEuL5pSrCvWNCRU7TEXWqs3Q2ztKlsZk289ntE9irIU/uWQKVqlbjX60zoM9cZLRaYvwHz+kPJpuaFuCc4UI0sCrUCNS8gBGCmgwGyFaKI6+IOXZjFRB0ipAJAMQJNgd8VGB16u2NHPl0UxnptQxKkqdoJB7RAWlh0OiEF8TwNBxoIinRZD3ppmvrV5BUsKGoqlARTOoOFIaTSM1ffvbmAPfn3w+umG95BxBI7jXxgLixdOJ9mb+7tNptC61mvip2UdGrlujfdDvSelpmiRPlGSzBirk9Q3VLG8SBd6oJrlhqjlL6QR/brs64r4VwhmbNUAlLpONKEDMEHuJHOJi6+nbNa5cwXpbo67UYMO0GJMfKNg6Q2izusyS5luKVIyamphkynYcI7b6NOnbW/1kqcqrNlgMCuTqTQmhyIJWtMOsMolix0GCCCIrD9O9LVK2VDiaNMI1L7q8yKncBtjBaVm0wif0j0oqW+0hhhfUA5YiWgpXLUcM4pLY181U9v6VjUZqs0Xo1Xlz7TMeiI7KUHtEgC6D8IIyPGKqfaJ1wM7OqEFZamoDGlKIutVrUtlhTMxOm2CYGLI0xCcyjFa8aGI72Rybzl2IwDTGLEcKn6RQ1Y5JcJLOoC9uUaueXbshrSo65i50fLC5a8ztip0yOuYIqJkS5C9WIUww7Z5rUoCByguJJXGHFlxHaY1dR5fSHpUxzgADwB+sEPqkP2eyM+4bT8ocs8ugq4qdg+cPPO7OwfLzXLMA5LsyIKgVO0+aQ5LtKjNQd5NNRGpxrIPIb6wiW2U5bOf9Cdpj24+yueWeygJO3Mmh3wF7Jn1yAOqgdTTqgYf3lcKVptY7qTkZhiKoetiVcipyN4mnV1Y5HGucZFlYe0pOrDJj8IFL1wbFBrTE5w9ZrUyGiMwIOIU3an7QHVloNntHtqGxku10VcPnUgUGqms1O/hDc+WrCjAc4o5OnWoL6rMrgGAuOx+yV9wbT20xMxdIo9bjEkYFXoGrsVh1W4DZiYCDbdHAGq4RBlm44J247Ka4sbRas4qrROgLu1r1TGanLjEn+1nAumjDsPbEVpoJrAP2TR0ybeuJeu0vGqqBerQFmIFTdag+ydkevoWfc9Z6trgVmrUVujN7talBdJvUphWsWeiLYglvLe6Lzo4LyknL1FmKRdY9U9cEEVyIiS1rklkm3mvpZzJ9XcoC3qXkghw1FU3g2VRiKGIM9bdEzpShpktkBNBeoDWlaFa1BpqIENWZcYvdMz5UxCarMnM4YzFkiSSCHv37rUdmYoa0wutjjFVZZfWihHqrk5DTBs/n3RtPQxYpQt89g5LKjerCnqst8KxO2nUpq61dkZXpFJoldx/XurEj0UWxpekbPQm65aWRqN9TUdqqfwiJVj6VgggjLT539ITtL0laruRZSd4MqWcaZ4nXGaTShGojH3TTXsEav0nJ/iVow/0/wDal/SMa1lJ89+UaRYytOAUq7jiqkdwBhq06YJydDxRgf4orTZz5+vPvhp5MUW9n0ptdR91cf3qiIFvtV9qi9z+gFIbs0gtXLCGJnntgG8zD4QAd0eWOUWbAZZ1wHMxfWRFTrKt9s75yH3frWAbsWiCwBc3BTL3jy1RYFUTBE5mg8YivbfideF6nhnHiWpPjXu+vnvBMOsxOwc+fzEKSzk++lfvefPOqpRLeya/dUnwO2vbtqS5+yVNA6A/C15Tq1AEdpGXCgw8mjXzC1G4jzl5p1YS0ll9pWXiD24Y0AwqKHULgzYawz5YLhXCjN5ZvKN7NLJA50+QXZtPzVHWKzF2OBj+IeJr9Yp1XwzwIOVMhnT3aAa/YWvvmGZ6Iw6ygUxFMlrk11gQNgJFWOSgGJgtdnm5gynNM6XSRSmORpqBpwiHbLOyHaK1BGdThWp9463xOJAEVlDmyytaEnIHHrHXRnY9QY+yMc9sMM4I1AAZ06qgfAPebfu1ZF1nG6gHAAfyrX8TRGnVrUatuJG8CuB3ZwDsycxoMa0wB9oDaxOXA/pEJ7TqMOo4O+ur3mP2iMtffxhNokXgTUVGvJdyqBnlq8KtAR/WwpWiFiDQ5iLHRktWarkBVoSCaVGOXOnbAerajW6MDtz7BC1YnNm7SP6CI09AcVxp2038qQ7Jeo8+EGijN+2Twb9YR69hjVhzI8D4R0LRmjJTyUd0wJtBdlZr92UiOpRK0ZgWxF04Z0pWMjpSUGuAKBVKsRQY32zPAdwgItotAmKBQYA1NSTjXWTX+kT+hNpVLfZDq9ci4D4jcBwGVWziq/Z6ogORZidVRkBwqIs+jrBbXZ2plPkjl6xPrEH07BBBGVcG9JS/4lP+6n+2kUVms1Ryyp3546tvPXp+n6BtJTwfhTh/003gxlHmlBStcjtHEb/OOcajBb2QDVXM5EUprwx7afOIFoswFab8eWw+cBHszSBPh2ba5mvPDXEOZamchRVq4KACSa1yAGJzitJNkUY02GIMnR7OanBdus8IvLLYCi1fFiPZFKDiRmd+XGGzMvmii9wwQfi18q8oMooVUFEWvAV7zhWGZomNjcPFiMO36xfSNGs2Z1A0GGYJGXWOA27NsPS7KivRhhSt4UqRSoOvMeMBlv2eZtQc/wBYDZpnxKeB/wCUatwgrUgC6NvtYVpq254ZZZwi/KLGhFKCmJwPVwwNae1BWUZJozW9xAen5gQIlWfTjrg1buwmq/kcOnYoi/eyyzkQvtcSAcN4w54b4iWrRmBJoRiN4xAzwbWDXHMQU7YdOISCKo+ppbXG2YI7FDq9l0J2RPnFJl4vLWbT2pkoernrWmMxCta66sjA09uMnadFEYrVa7fZPA/URGlW2ZLIDVF32cSCv3GGK8jTaDEF3a9H0UvKcTUzqBR0GHtpU0GPtKWXWSDhESTamQUBqvwk1HLZ52w3/aVTerRs7w6v5guFftLTeIbLqx2Hu+g45QWSUqbOFarhrp8x9f6QI4bEdgz78t7GGnSuBz74hl2RvNDFRPmS6dZdeLKMKjdXIZYnM0hUp60IIyw+FBrrXM8d1dSwS5oYVGvnjv2tsGQ7Ybfqmvuk9Za69Rrmd534Y0gPLZJBF4Z76lmzqSPrt2mghyjsz34xaVzxx1kfwrTmMDtG0xCnS7rVGTdx8+coI8v9e8AcaXhvy8Y9AusV7OfkxIkprhjSSkFSKwVdWfTtoUSwrgCWxdaKQVJFGIINcRgdowOUNGcztVrtcqKLq5saADBcWywAwill2g7VbjgYsbJNDVGIOw15ZZj6QDrjqLwPiYkaIp+02en+vJ/3UERJrUCb6jvanyh/QP8A3FnO2fJPbNSIPqOCCCMq4b6RGu6SnH7Mv/bXeIzcmUHqDq4b668OOOcaH0mD/EZuXsS+XUG/DLwjPWA7uOR89kajNNWjRHwkk88d+/VsziXZ7IlkVmcqXxDMcaari8/abWeqMASbCTMVEac1MPZIwINMSDt2HVic0Fc5KvWl77YItbq5DqjOnAYeTFRIRXtDXm6q53ThUbWpq+yOdYtZkpJShrwF3OuAHypmM/GC1WxLPLrwOXWxGA+0c9wBOYijnTa3ZloF5m60uRU3QDk83WRsXNtwgqzFteYAZQCSxgJswkDMGi06zmuwDKIc60S1zZ57bz6tPyp1jzaIFptrzDVmrqrkAPhUDBV3CCWkQxJW2sMUSUn3JaV/MwJ74V+3zj757F8KRHDDUCx3ZDicocWXMOV1eV7xgpxbW4zCHiiDvUA98OpbVpRkK70JI/I5qTvv8oZWwzD7/wC6PrC/7Pnarr9xgnwnJMDKaXXAUgUzXeUOOsmuIrkYrrRZVK4gEGuGrkdR4Q2ylSLysjDEHHtGvnElLSGpfpXU4GB++Bn94Y8dRYztosjJiKka9o47t+UMhqYjLw/SNZa0vsBTGmfVxrU1qMClKbqDVkM7brHdJIwBzGyuRH2TFBIng4HDYdm4/Z36ofmSQwIP6128PPCrGB8+aRZ2OdUUOYy5ajtIp2cBGfDfn+oUtjLejc/qInk8Meyn08Yct9lqtR7Qx4jXj891BrJhWR6imyNMJEk06uzKtMjt3jLXluj11qCO/fsG/wA51IS2o7PA+awsnXlTXqA3DWxw80gyesy1pEm12UhEfIB140bDsxhFlXdTI0Pzi20rMBRQxF5ypRRqC0OO/AYwFdaLEjA3lFdowPaIhrZ7hpndYAHXdZA1D2jsizMQp2bH7SDmJSwDdtFZa7lYjtc9x85wrQq1eVXEVXxgtC1VBjQr/M308Ye0KlJ0kbHUd4gPqGCCCMNuFek7/wBymYYXJeP4R9PCM3YDVqZk4c9W3H6mNJ6Ux/iTZ4y5fgw1YxndGOFvuTgils93k/hjUZprpPbC7rZ1PVWlfO/Ps2mJNlUIta3QorXKlBnFLohS7tMbMnyPlyiVp2ebqyl9p8SNorQDm3hFP0ZNqvs1omC8iG7LRvffPrbgKM34REB5rOxZiWZjVmOZh7SDAMJa+xKFwb2r125tXkBDEoYxlUqSkSkl3uHj+kNyErEuZMCLWlScABmTBKeRFVasQo7I9W1AAEIaHJmKop4FzVuQitmzSDjRnGZNCifZUZFgc2xAOVT1oaW8euSAD78ypLUwwGJbkDTWRDTF9L0kgONz8znwl074t7DbEc08CG7lN7tEY5bS9eo7nhVR2AmJMu2v7wD/AHwG/e9ociIaXlvmsSTFoQGU8+/bGY010eeUC6VZNY1r9RviZobS1SApNfgJqT91ve+6cdQMa+yzVdaihGsRUnw5dZrTdwJ6uOqtwnPDWp1jnnE21SA6E4XlzqVyNSWZsC4NQBxGJ1TulehPUt6xB1GOI+E/SKaS14XNYxXeMSV8SOY1iEaUlqs9MuXzXzu3xHktQ55Ux2bD24GLufLvCnfsOoxUT5d0hqYGtRv1jmPCCSruzPeFcu3A8cTnr1AqACSKV1okXHNBQZjcDq2YGu2lMzD2jX1d/LA7qjZQ4ZxJtKA0Ow9x7tm6gwoKEyNdff2gDz52eMKIpTVnicabTTWcQAP6QTFoe/ZlgTXVx1ClMTHpyGo11DHDdqpU0G0jfGkTrCNVAN1akVx6x+LXHls6l16VIYniAjUXhBYjnqA1YUGdRezZtp2wm1Gox4AbP1IHnWZMPpCY+ShR399fCHFDUxJwNcK0qTjXXU74YQeGuoGXCJFMye/fsx87YNFOOqh+z/M8P6I/68r76fxCGGHUX7o/ieJGhP8AuZWy+n8SwZfTsEEEYbcL9LWGkTvkIf3pgjIWuZdszbXcLyUV26+t2xs/TClLejfFZ02apk3bGH0zhIkjbfbsY/IxqId0IlEG/HthgzK2h3/0wzDigov79DzibovBF4RV2YG45OZCjtcE+EKIoWHpQguQtFiQWVkl4RGmzuszjMdRN21hvp2FgdUT0wQnYvyiukriuxat2AnwAgG0lqAS3spQUyvMa0WoyGBrTUMKEiEVLtVjq3DAZAAYAbAMBCp69VF3FjxZqV/KqdkeqvVO8xAkvXAYDZEiXIalaGGFWLvQ1rRaq44QY76vM2TUFpbIReBBzFcPIjUaC0ucyesPbrrBwDnnQNxBxMUOmbUXepNQBQfSI9gn3XU6jgeB6p7sYsqy/lNdJtyrMQqcVYeeBjm02SyOyZMjVB55+B5xttGWoslDmM+0jxUnnGc09LpPVvjFDxy+Y7ItWeVfPANGGAYXgNmYI5MCOFIiTbPfqBmRUcR5pyMS5Y6jL8DBhwbqnvCdsIR6EN8JB5ZHuiissDUI+ybvI4r31EWU7WPO0HHt/pUMWuz3J7oPeBI4jrr84kWj3SNY891POIntqeKYtS5Hn3YdmJrqzxNIZb2def3R2+79aVxrEq0ewvLbqqNW/wDTGkRCcOY2eHDbgOVTUSLOaA5eHAU90bBzOcNznqaePnjCTMovnyeMJUfrBktPPnHyIeXdTLKoPI69QhpB5Pnvhd7VnzzgFt7C8B4tE3oyAbXZgwqDOlqRWmcxRn3xBb2E4btrRO6MTR+32VKGvrpRrq9tTEH0xBBBGW3GfTOlLVIatKySPyux/mjnum8ZUj7j/wAQjpvpukG9ZH1UmoTvPq2A7A3ZHNrcKyJJ2M6fmLN4CNRm+S9HNWWPu/KI0lOo3BT3/rC9BzKqBswh+yWfAj7JH5f/AMwqIRlx6iRP/ZTHn7MYyl6Spcu9KP3T3RDs1nJYD4gV/MCviYutDpWqnj8jEyRo3GmsHD6xavN2MlaJRopp7vgSPCnbCZaVHPz3eEbS26JB1e1iOOseHYIzdtshlmtKqcx51xm0tSZ9jazMkyitrocQajIxRzptWLUAqSaDIcIdmzywpfagwFdW6mqIrKPiEW5bsTjmyfN1680neYUxxpsFOcN+sC+zidp1cIdC3Lqn2vbbd8KnlU/j3QbazQ87297P4p9TELTz1aX9/wCkL0Pgp3KO1quf3TLiJpF70xF2EseUa9M+zUsddx8SP+6L/wDJDAz4g+H1pD8nGZ+F/wDbeGVPWWvxL3sBFWl6Xzs0zaFB3kG6fGETF6ibqr2YfKPNKv8A+nk7Qzfxgw5MHVA+038RiLPFRZrdRRvPi0Mf18+e3W7MPnmTDJ8fPbFZJQVO7zvhwDV57o8B8/TOCvn5wDgPLzxhM2cNfj9eUed3nfEaeTv/AK8oCyJ6ifdHi0ab0Z6INotyOFqknru2wrUSxxLitNitGW0XZJtpaXJlAmYxKAbakmtfdAxJOoAx9F9FOj6WKzrJShPtO9KF2oATwwAA1ACJVkXsEEEZaZfp30a/b7PcUgTEa/LLVu3gCCGIxAIJFRkaHGlI4ppPQtokSZiT5MyWyMJilgCp1NdZeqQFByJzj6Sij6YaNE+yzFpUqL4G26DUc1LDnFlSx816LmXXZdpqOcaLRy9ZtxDcm/5B4ydoQyplDmhuneNR5ih5xptHWoBkevVybg1MeRoeFY0lXJskIayxdLJqOEemzxmxx6UUpCjAjV5pGnsxVgHGzzzEVk6zQ1Z7SUO45j5iC89YurUgptB7t4jM6dQXcT+IZHjsPnfFlabSxFUPLbwjKaQtb1IqQdYhY3mql5LVwFfu4+GUMtZ31qQNrdUdr0HfD0xwc0U8KjwNO6GbmxAN5qO8kCI1C0upiCHfUfcXfiOsd3s/eyhVll3iWYFlBx2u5xCg51OZOoVOZFfJcsEgElzqSX82pdUbxXlnFxZJN2jNS8BRVXBUGsLvOsmpO05m4qalUShNWNWY7WY1PL6RWy2vM7nL2F4DM8z4Q5aJhc3QabTsH1OqGZ7gC6MAMAIoVYhV3OyW/wC8pQd7iG5Ptp95fEQ/IW7JZjnMYKPupRmP5zLEMSPaB2Vb8oLDvAhEqNpGZWVKXa5/iESq9WvE9pJ8/rFbanq8tfhq3eT8hE+ctFVBmaDkPIgekW738sP6QFUr7YrxEd09HHRT9lkmbNWk6aBUH3EzC7mOBbfQe7WNg9lQ5oh4qD8oaY+XvUA+957YP2XeOz9Y+mW0NZznIknjLQ/KI8zoxYmzslnP/wBSf+MNMfNxs7bvPKH7Jo2ZMcIkszHbBUTrE1wqfhGVSaADPd9FS+jNiXFbJZxwlJ/4xY2eypLFERVGxQFHdE0xkugXQtbCl9yHnuKFhki53FPHM68NQjaQQRGhBBBAEEEEB88elbo4bPaDMUdRvA+z2Gq8Au2Mroe1e43kbI+kOmWgFtlnZKAsASu/atdVduogHVHzLpKxNZ5pRqgqcDSlRUitNWRBGogxqVMdJ6O26+vq2PXQYV95Mgd5GR5H3ou2WOa6L0gTdZWuuuIOdDvGsHIjYY3mitJLNXKjCl9K5HaDrU40PgQQK59cpMxIqrXLi3mRXWuI5WKSbOKVoYgWi0K2YB44xKt5zijmvjBvi048hDq74StlTYTxJ+URzNMHr4jssUdVGACjdhCXmk66b/oIr/XwlrRF0xPacAKDzxhNmlNMcIuJJp2+eQivDk+cTuAi5p6pTLGE1h16f5SH3a/6jDPYKwCrdPVmohqiC4mwgVq/4mJPALEet1HbbRRzNSe4D8UeNu7BETSs+6AgzGf3jn2ZfhG2Kyj2EX5jNqGA4D+g7Y7B6Nuh1StttC7DIQ7MxNYbzio4HZSl9GHQUzQtotC0kg1VD/mEbR8AP5qUyjtoEZtaj2CCCIoggggCCCCAIIIIAggggCCCCAI5n6UehQtCNaJS/wB4uLAfxYasOtwB1GvTIID49BeU5BBDA0IPnvjSaN0jUqyNddcjxzBGtTrHDWAR0v0h+joTgZ9nWjDEqoxG26Bmuu7mNWyOJz5MyQ91gVI7CNoOsRrUx1HR+mVeiPRHOo+y+vqHX93MbxjDlrocuwxz+xaUVhdanA5Rdyra9KBr67HOI4Pn214iKxeXmkmpUZRRzjFja7U2sEDeLyjmKgdoiteah938rfWvjGV55xGdoaZokOZfxOPwqf5hCL0gZmaeCqveWPhEaMF4kWOyPMrcXqj2nYhVUbWdsB4wqROX/Ks94/FMJcdgur2gxLeRMmU9e5KjJFoFHJQFHIc4uBdndZZpIN+Zk08g3U2iUpzb7Rx2AA1hyXLCigrnUk4licyTrJhSqFFAAANQhF4EXmN1BryL7l3fa5Cpy0j0zAovnV7O8jXyOvaPsmL/ANHfQprdN9fOBFmRuBmMPdXYo1ngBjWkbof0Ym6Tm5GXZpZAaZSgoPcTUz0oNiihNcA30Bo+xJJlrKlqFRAFVRkAPOeuJash6XLCgKoAAAAAFAAMAABkIdggjKiCCCAIIIIAggggCCCCAIIIIAggggCCCCAIx/S7oLItikgKkw41p1SdppiG+0OYMbCCA+XuknQi0WVqFCRq2n7pGD8sdwiik210NDXDMHMR9cWmzo6lHVWU5qwBB5GMP0g9Glmn1Ms+rbYwvrwBqHXkxA2RdRxWyaZWovYbYsfWWd8T3gHXz1fKLbS3oqtMupVGYbZbK6/la6/cYyds6Mz5Vb9UA1zFeX/EtO+KYtv2CTsSnVGFDmMTQHUcIbmWaWrEKqEDI3RFCtlcZTk5Ov1j31La56/n+lYovGmgZmIjW5SaJVzuy5nIQuwdHJs0j1ci0Tyday3u83ai0jYaJ9F9umUvmXZU3n1szkF6o/MImmMTNmqorNIOxBlz+LnQRtOino7tFtZZ1sDSbOCCJZqJkwcM0U/EcaZDGsdG6M+j2x2MiYEM2cMfWzaMwO1R7KneBXfGwiaYjWKyJKRZctAiKKKqigA3CJMEERRBBBAEEEEAQQQQBBBBAEEEEAQQQQBBBBAEEEEAQQQQBBBBAEJbKCCAx2l/bMSNAe0I8gijViPYIIgIIIIAggggCCCCAIIIIAggggCCCCAIIIIAggggP//Z\",\r\n            14999,\r\n            20\r\n        );\r\n    }\r\n\r\n    // function addUser(\r\n    //     string memory _username,\r\n    //     string memory _name,\r\n    //     string memory _billingAdd,\r\n    //     string memory _password\r\n    // ) public {\r\n    //     require(\r\n    //         userList[msg.sender].id != address(0),\r\n    //         \"Store: addUser - User already exists\"\r\n    //     );\r\n\r\n    //     userList[msg.sender] = User(\r\n    //         msg.sender,\r\n    //         _username,\r\n    //         _name,\r\n    //         _billingAdd,\r\n    //         _password,\r\n    //         0\r\n    //     );\r\n\r\n    //     emit UserAdded(msg.sender, _username);\r\n    // }\r\n\r\n    // function getUser(string memory _username, string memory _password)\r\n    //     public\r\n    //     view\r\n    //     returns (bool)\r\n    // {\r\n    //     // require(StringUtils  userList[msg.sender].username == _username);\r\n    // }\r\n\r\n    // function getUserOrder(address _id) public view returns (Order[] memory) {\r\n    //     Order[] memory orders = new Order[](userList[_id].orderCount);\r\n\r\n    //     for (uint256 i = 0; i < userList[_id].orderCount; i++) {\r\n    //         orders[i] = orderList[_id][i];\r\n    //     }\r\n\r\n    //     return orders;\r\n    // }\r\n\r\n    // function getUserOrderProducts(address _id, uint256 _orderId)\r\n    //     public\r\n    //     view\r\n    //     returns (Product[] memory)\r\n    // {\r\n    //     Product[] memory products = new Product[](\r\n    //         orderList[_id][_orderId].orderProductCount\r\n    //     );\r\n    //     for (\r\n    //         uint256 i = 0;\r\n    //         i < orderList[_id][_orderId].orderProductCount;\r\n    //         i++\r\n    //     ) {\r\n    //         products[i] = orderProductList[_id][_orderId][i];\r\n    //     }\r\n\r\n    //     return products;\r\n    // }\r\n\r\n    function addProduct(\r\n        string memory _name,\r\n        string memory _description,\r\n        string memory _imgUrl,\r\n        uint256 _price,\r\n        uint256 _quantity\r\n    ) public returns (uint256) {\r\n        productList[productCount] = Product(\r\n            productCount,\r\n            _name,\r\n            _price,\r\n            _quantity,\r\n            _description,\r\n            _imgUrl,\r\n            0\r\n        );\r\n\r\n        productCount++;\r\n        emit ProductAdded(productCount, _name);\r\n        return productCount - 1;\r\n    }\r\n\r\n    // function getProducts() public view returns (Product[] memory) {\r\n    //     Product[] memory products = new Product[](productCount);\r\n\r\n    //     for (uint256 i = 0; i < productCount; i++) {\r\n    //         products[i] = productList[i];\r\n    //     }\r\n\r\n    //     return products;\r\n    // }\r\n\r\n    // function getProduct(uint256 _id) public view returns (Product memory) {\r\n    //     return productList[_id];\r\n    // }\r\n\r\n    // function addReview(\r\n    //     uint256 _productId,\r\n    //     uint256 _rating,\r\n    //     string memory _review\r\n    // ) public {\r\n    //     require(\r\n    //         userList[msg.sender].id == address(0),\r\n    //         \"Store: addReview - User does not exist\"\r\n    //     );\r\n\r\n    //     require(\r\n    //         _rating < 0 || _rating > 5,\r\n    //         \"Store: addReview - Rating should be between 0 and 5\"\r\n    //     );\r\n\r\n    //     require(\r\n    //         _productId < 0 || _productId > productCount,\r\n    //         \"Store: addReview - Product does not exist\"\r\n    //     );\r\n\r\n    //     require(\r\n    //         productList[_productId].id != _productId,\r\n    //         \"Store: addReview - Product does not exist\"\r\n    //     );\r\n\r\n    //     reviewList[_productId][productList[_productId].reviewCount] = Review(\r\n    //         msg.sender,\r\n    //         _rating,\r\n    //         _review\r\n    //     );\r\n\r\n    //     productList[_productId].reviewCount++;\r\n\r\n    //     emit ReviewAdded(\r\n    //         productList[_productId].reviewCount - 1,\r\n    //         _review,\r\n    //         _rating\r\n    //     );\r\n    // }\r\n\r\n    // function getReviews(uint256 _productId)\r\n    //     public\r\n    //     view\r\n    //     returns (Review[] memory)\r\n    // {\r\n    //     Review[] memory reviews = new Review[](\r\n    //         productList[_productId].reviewCount\r\n    //     );\r\n\r\n    //     for (uint256 i = 0; i < productList[_productId].reviewCount; i++) {\r\n    //         reviews[i] = reviewList[_productId][i];\r\n    //     }\r\n\r\n    //     return reviews;\r\n    // }\r\n\r\n    // function getReview(uint256 _productId, uint256 _reviewId)\r\n    //     public\r\n    //     view\r\n    //     returns (Review memory)\r\n    // {\r\n    //     return reviewList[_productId][_reviewId];\r\n    // }\r\n\r\n    // function addOrder(\r\n    //     OrderProduct[] memory _products,\r\n    //     string memory _shippingDet\r\n    // ) public {\r\n    //     require(\r\n    //         userList[msg.sender].id == address(0),\r\n    //         \"Store: addOrder - User does not exist\"\r\n    //     );\r\n\r\n    //     uint256 total = 0;\r\n    //     for (uint256 i = 0; i < _products.length; i++) {\r\n    //         require(\r\n    //             _products[i].id < 0 || _products[i].id > productCount,\r\n    //             \"Store: addOrder - Product does not exist\"\r\n    //         );\r\n\r\n    //         require(\r\n    //             productList[_products[i].id].id != _products[i].id,\r\n    //             \"Store: addOrder - Product does not exist\"\r\n    //         );\r\n\r\n    //         require(\r\n    //             productList[_products[i].quantity].quantity == 0,\r\n    //             \"Store: addOrder - Product out of stock\"\r\n    //         );\r\n    //     }\r\n\r\n    //     for (uint256 i = 0; i < _products.length; i++) {\r\n    //         productList[_products[i].id].quantity -= _products[i].quantity;\r\n    //         total += productList[_products[i].id].price;\r\n\r\n    //         orderProductList[msg.sender][userList[msg.sender].orderCount][\r\n    //             i\r\n    //         ] = Product(\r\n    //             _products[i].id,\r\n    //             productList[_products[i].id].name,\r\n    //             productList[_products[i].id].price,\r\n    //             _products[i].quantity,\r\n    //             productList[_products[i].id].description,\r\n    //             productList[_products[i].id].imgUrl,\r\n    //             productList[_products[i].id].reviewCount\r\n    //         );\r\n    //     }\r\n\r\n    //     orderList[msg.sender][userList[msg.sender].orderCount] = Order(\r\n    //         userList[msg.sender].orderCount,\r\n    //         total,\r\n    //         _shippingDet,\r\n    //         _products.length\r\n    //     );\r\n\r\n    //     userList[msg.sender].orderCount++;\r\n\r\n    //     emit OrderPlaced(\r\n    //         msg.sender,\r\n    //         userList[msg.sender].orderCount - 1,\r\n    //         total\r\n    //     );\r\n    // }\r\n\r\n    // function placeOrder(\r\n    //     OrderProduct[] memory _products,\r\n    //     string memory _shippingDetails\r\n    // ) public {\r\n    //     require(\r\n    //         userList[msg.sender].id != address(0),\r\n    //         \"Store: placeOrder - User does not exist\"\r\n    //     );\r\n\r\n    //     require(\r\n    //         _products.length < 1,\r\n    //         \"Store: placeOrder - No products in order\"\r\n    //     );\r\n\r\n    //     require(\r\n    //         _products.length > productCount,\r\n    //         \"Store: placeOrder - Too many products\"\r\n    //     );\r\n\r\n    //     for (uint256 i = 0; i < _products.length; i++) {\r\n    //         require(\r\n    //             productList[_products[i].productID].id !=\r\n    //                 _products[i].productID,\r\n    //             \"Store: placeOrder - Product does not exist\"\r\n    //         );\r\n    //         require(\r\n    //             _products[i].quantity <\r\n    //                 productList[_products[i].productID].quantity,\r\n    //             \"Store: placeOrder - Product out of stock\"\r\n    //         );\r\n    //     }\r\n\r\n    //     uint256 _amount = 0;\r\n\r\n    //     for (uint256 i = 0; i < _products.length; i++) {\r\n    //         _amount +=\r\n    //             productList[_products[i].productID].price *\r\n    //             _products[i].quantity;\r\n    //         productList[_products[i].productID].quantity -= _products[i]\r\n    //             .quantity;\r\n    //     }\r\n\r\n    //     Order memory order = Order(\r\n    //         orderCount,\r\n    //         userList[msg.sender],\r\n    //         _amount,\r\n    //         _shippingDetails,\r\n    //         _products\r\n    //     );\r\n\r\n    //     orderList[orderCount] = order;\r\n    //     userList[msg.sender].orderList.push(orderCount);\r\n\r\n    //     orderCount++;\r\n    // }\r\n}\r\n",
  "sourcePath": "E:\\Semester 7\\Blockchain and Cryptography\\Project\\Blockchain-MERN-Ecommerce\\solidity\\contracts\\Store.sol",
  "compiler": {
    "name": "solc",
    "version": "0.5.16+commit.9c3226ce.Emscripten.clang"
  },
  "schemaVersion": "3.4.10",
  "updatedAt": "2022-12-02T22:05:01.526Z",
  "devdoc": {
    "methods": {}
  },
  "userdoc": {
    "methods": {}
  }
}