{
  "contractName": "Store",
  "abi": [
    {
      "inputs": [],
      "payable": false,
      "stateMutability": "nonpayable",
      "type": "constructor"
    },
    {
      "anonymous": false,
      "inputs": [
        {
          "indexed": false,
          "internalType": "address",
          "name": "",
          "type": "address"
        },
        {
          "indexed": false,
          "internalType": "uint256",
          "name": "",
          "type": "uint256"
        },
        {
          "indexed": false,
          "internalType": "uint256",
          "name": "",
          "type": "uint256"
        }
      ],
      "name": "OrderPlaced",
      "type": "event"
    },
    {
      "anonymous": false,
      "inputs": [
        {
          "indexed": false,
          "internalType": "uint256",
          "name": "",
          "type": "uint256"
        },
        {
          "indexed": false,
          "internalType": "string",
          "name": "",
          "type": "string"
        }
      ],
      "name": "ProductAdded",
      "type": "event"
    },
    {
      "anonymous": false,
      "inputs": [
        {
          "indexed": false,
          "internalType": "uint256",
          "name": "",
          "type": "uint256"
        },
        {
          "indexed": false,
          "internalType": "string",
          "name": "",
          "type": "string"
        },
        {
          "indexed": false,
          "internalType": "uint256",
          "name": "",
          "type": "uint256"
        }
      ],
      "name": "ReviewAdded",
      "type": "event"
    },
    {
      "anonymous": false,
      "inputs": [
        {
          "indexed": false,
          "internalType": "address",
          "name": "",
          "type": "address"
        },
        {
          "indexed": false,
          "internalType": "string",
          "name": "",
          "type": "string"
        }
      ],
      "name": "UserAdded",
      "type": "event"
    },
    {
      "constant": false,
      "inputs": [
        {
          "internalType": "string",
          "name": "_username",
          "type": "string"
        },
        {
          "internalType": "string",
          "name": "_name",
          "type": "string"
        },
        {
          "internalType": "string",
          "name": "_billingAdd",
          "type": "string"
        },
        {
          "internalType": "string",
          "name": "_password",
          "type": "string"
        }
      ],
      "name": "addUser",
      "outputs": [
        {
          "internalType": "string",
          "name": "",
          "type": "string"
        }
      ],
      "payable": false,
      "stateMutability": "nonpayable",
      "type": "function"
    },
    {
      "constant": false,
      "inputs": [
        {
          "internalType": "string",
          "name": "_name",
          "type": "string"
        },
        {
          "internalType": "string",
          "name": "_description",
          "type": "string"
        },
        {
          "internalType": "string",
          "name": "_imgUrl",
          "type": "string"
        },
        {
          "internalType": "uint256",
          "name": "_price",
          "type": "uint256"
        },
        {
          "internalType": "uint256",
          "name": "_quantity",
          "type": "uint256"
        }
      ],
      "name": "addProduct",
      "outputs": [
        {
          "internalType": "uint256",
          "name": "",
          "type": "uint256"
        }
      ],
      "payable": false,
      "stateMutability": "nonpayable",
      "type": "function"
    },
    {
      "constant": false,
      "inputs": [
        {
          "internalType": "uint256[]",
          "name": "_products",
          "type": "uint256[]"
        },
        {
          "internalType": "uint256[]",
          "name": "_quantity",
          "type": "uint256[]"
        },
        {
          "internalType": "string",
          "name": "_shippingDet",
          "type": "string"
        }
      ],
      "name": "addOrder",
      "outputs": [],
      "payable": false,
      "stateMutability": "nonpayable",
      "type": "function"
    }
  ],
  "bytecode": "0x608060405260006004553480156200001657600080fd5b506200007b604051806060016040528060258152602001620018246025913960405180610100016040528060c381526020016200176160c391396040518060600160405280603a815260200162001849603a9139613a976014620001a060201b60201c565b50620000fc6040518060400160405280601a81526020017f6950686f6e652031312050726f203235364742204d656d6f727900000000000081525060405180610100016040528060c381526020016200176160c391396040518060800160405280604f815260200162001712604f9139613a976014620001a060201b60201c565b50620001996040518060400160405280601a81526020017f43616e6e6f6e20454f53203830442044534c522043616d65726100000000000081525060405180610100016040528060c381526020016200176160c391396040518060400160405280600881526020017f646174613a696d67000000000000000000000000000000000000000000000000815250613a976014620001a060201b60201c565b50620003f0565b60006040518060e00160405280600454815260200187815260200184815260200183815260200186815260200185815260200160008152506003600060045481526020019081526020016000206000820151816000015560208201518160010190805190602001906200021592919062000341565b50604082015181600201556060820151816003015560808201518160040190805190602001906200024892919062000341565b5060a08201518160050190805190602001906200026792919062000341565b5060c082015181600601559050506004600081548092919060010191905055507f259101de1f87b04b9ee0332ce5e3cc508014004bf283424aead6cd8692f5cf98600454876040518083815260200180602001828103825283818151815260200191508051906020019080838360005b83811015620002f4578082015181840152602081019050620002d7565b50505050905090810190601f168015620003225780820380516001836020036101000a031916815260200191505b50935050505060405180910390a1600160045403905095945050505050565b828054600181600116156101000203166002900490600052602060002090601f016020900481019282601f106200038457805160ff1916838001178555620003b5565b82800160010185558215620003b5579182015b82811115620003b457825182559160200191906001019062000397565b5b509050620003c49190620003c8565b5090565b620003ed91905b80821115620003e9576000816000905550600101620003cf565b5090565b90565b61131280620004006000396000f3fe608060405234801561001057600080fd5b50600436106100415760003560e01c806301cda3ac14610046578063524a046e1461033f57806382a5cb6414610550575b600080fd5b6102c46004803603608081101561005c57600080fd5b810190808035906020019064010000000081111561007957600080fd5b82018360208201111561008b57600080fd5b803590602001918460018302840111640100000000831117156100ad57600080fd5b91908080601f016020809104026020016040519081016040528093929190818152602001838380828437600081840152601f19601f8201169050808301925050505050505091929192908035906020019064010000000081111561011057600080fd5b82018360208201111561012257600080fd5b8035906020019184600183028401116401000000008311171561014457600080fd5b91908080601f016020809104026020016040519081016040528093929190818152602001838380828437600081840152601f19601f820116905080830192505050505050509192919290803590602001906401000000008111156101a757600080fd5b8201836020820111156101b957600080fd5b803590602001918460018302840111640100000000831117156101db57600080fd5b91908080601f016020809104026020016040519081016040528093929190818152602001838380828437600081840152601f19601f8201169050808301925050505050505091929192908035906020019064010000000081111561023e57600080fd5b82018360208201111561025057600080fd5b8035906020019184600183028401116401000000008311171561027257600080fd5b91908080601f016020809104026020016040519081016040528093929190818152602001838380828437600081840152601f19601f820116905080830192505050505050509192919290505050610733565b6040518080602001828103825283818151815260200191508051906020019080838360005b838110156103045780820151818401526020810190506102e9565b50505050905090810190601f1680156103315780820380516001836020036101000a031916815260200191505b509250505060405180910390f35b61053a600480360360a081101561035557600080fd5b810190808035906020019064010000000081111561037257600080fd5b82018360208201111561038457600080fd5b803590602001918460018302840111640100000000831117156103a657600080fd5b91908080601f016020809104026020016040519081016040528093929190818152602001838380828437600081840152601f19601f8201169050808301925050505050505091929192908035906020019064010000000081111561040957600080fd5b82018360208201111561041b57600080fd5b8035906020019184600183028401116401000000008311171561043d57600080fd5b91908080601f016020809104026020016040519081016040528093929190818152602001838380828437600081840152601f19601f820116905080830192505050505050509192919290803590602001906401000000008111156104a057600080fd5b8201836020820111156104b257600080fd5b803590602001918460018302840111640100000000831117156104d457600080fd5b91908080601f016020809104026020016040519081016040528093929190818152602001838380828437600081840152601f19601f8201169050808301925050505050505091929192908035906020019092919080359060200190929190505050610a33565b6040518082815260200191505060405180910390f35b6107316004803603606081101561056657600080fd5b810190808035906020019064010000000081111561058357600080fd5b82018360208201111561059557600080fd5b803590602001918460208302840111640100000000831117156105b757600080fd5b919080806020026020016040519081016040528093929190818152602001838360200280828437600081840152601f19601f8201169050808301925050505050505091929192908035906020019064010000000081111561061757600080fd5b82018360208201111561062957600080fd5b8035906020019184602083028401116401000000008311171561064b57600080fd5b919080806020026020016040519081016040528093929190818152602001838360200280828437600081840152601f19601f820116905080830192505050505050509192919290803590602001906401000000008111156106ab57600080fd5b8201836020820111156106bd57600080fd5b803590602001918460018302840111640100000000831117156106df57600080fd5b91908080601f016020809104026020016040519081016040528093929190818152602001838380828437600081840152601f19601f820116905080830192505050505050509192919290505050610bcb565b005b60606040518060c001604052803373ffffffffffffffffffffffffffffffffffffffff16815260200186815260200185815260200184815260200183815260200160008152506000803373ffffffffffffffffffffffffffffffffffffffff1673ffffffffffffffffffffffffffffffffffffffff16815260200190815260200160002060008201518160000160006101000a81548173ffffffffffffffffffffffffffffffffffffffff021916908373ffffffffffffffffffffffffffffffffffffffff160217905550602082015181600101908051906020019061081a929190611238565b506040820151816002019080519060200190610837929190611238565b506060820151816003019080519060200190610854929190611238565b506080820151816004019080519060200190610871929190611238565b5060a082015181600501559050507fa56e21173460286ea98fc3defc7671b9b8e2ff0c6acea8d6ed30b343724e23fa3386604051808373ffffffffffffffffffffffffffffffffffffffff1673ffffffffffffffffffffffffffffffffffffffff16815260200180602001828103825283818151815260200191508051906020019080838360005b838110156109145780820151818401526020810190506108f9565b50505050905090810190601f1680156109415780820380516001836020036101000a031916815260200191505b50935050505060405180910390a16000803373ffffffffffffffffffffffffffffffffffffffff1673ffffffffffffffffffffffffffffffffffffffff1681526020019081526020016000206001018054600181600116156101000203166002900480601f016020809104026020016040519081016040528092919081815260200182805460018160011615610100020316600290048015610a245780601f106109f957610100808354040283529160200191610a24565b820191906000526020600020905b815481529060010190602001808311610a0757829003601f168201915b50505050509050949350505050565b60006040518060e0016040528060045481526020018781526020018481526020018381526020018681526020018581526020016000815250600360006004548152602001908152602001600020600082015181600001556020820151816001019080519060200190610aa6929190611238565b5060408201518160020155606082015181600301556080820151816004019080519060200190610ad7929190611238565b5060a0820151816005019080519060200190610af4929190611238565b5060c082015181600601559050506004600081548092919060010191905055507f259101de1f87b04b9ee0332ce5e3cc508014004bf283424aead6cd8692f5cf98600454876040518083815260200180602001828103825283818151815260200191508051906020019080838360005b83811015610b7f578082015181840152602081019050610b64565b50505050905090810190601f168015610bac5780820380516001836020036101000a031916815260200191505b50935050505060405180910390a1600160045403905095945050505050565b600080905060008090505b8451811015610ff7576000858281518110610bed57fe5b60200260200101519050848281518110610c0357fe5b602002602001015160036000838152602001908152602001600020600301600082825403925050819055506003600082815260200190815260200160002060020154830192506040518060e00160405280828152602001600360008481526020019081526020016000206001018054600181600116156101000203166002900480601f016020809104026020016040519081016040528092919081815260200182805460018160011615610100020316600290048015610d045780601f10610cd957610100808354040283529160200191610d04565b820191906000526020600020905b815481529060010190602001808311610ce757829003601f168201915b5050505050815260200160036000848152602001908152602001600020600201548152602001868481518110610d3657fe5b60200260200101518152602001600360008481526020019081526020016000206004018054600181600116156101000203166002900480601f016020809104026020016040519081016040528092919081815260200182805460018160011615610100020316600290048015610ded5780601f10610dc257610100808354040283529160200191610ded565b820191906000526020600020905b815481529060010190602001808311610dd057829003601f168201915b50505050508152602001600360008481526020019081526020016000206005018054600181600116156101000203166002900480601f016020809104026020016040519081016040528092919081815260200182805460018160011615610100020316600290048015610ea15780601f10610e7657610100808354040283529160200191610ea1565b820191906000526020600020905b815481529060010190602001808311610e8457829003601f168201915b505050505081526020016003600084815260200190815260200160002060060154815250600260003373ffffffffffffffffffffffffffffffffffffffff1673ffffffffffffffffffffffffffffffffffffffff16815260200190815260200160002060008060003373ffffffffffffffffffffffffffffffffffffffff1673ffffffffffffffffffffffffffffffffffffffff1681526020019081526020016000206005015481526020019081526020016000206000848152602001908152602001600020600082015181600001556020820151816001019080519060200190610f8d929190611238565b5060408201518160020155606082015181600301556080820151816004019080519060200190610fbe929190611238565b5060a0820151816005019080519060200190610fdb929190611238565b5060c08201518160060155905050508080600101915050610bd6565b5060405180608001604052806000803373ffffffffffffffffffffffffffffffffffffffff1673ffffffffffffffffffffffffffffffffffffffff1681526020019081526020016000206005015481526020018281526020018381526020018551815250600160003373ffffffffffffffffffffffffffffffffffffffff1673ffffffffffffffffffffffffffffffffffffffff16815260200190815260200160002060008060003373ffffffffffffffffffffffffffffffffffffffff1673ffffffffffffffffffffffffffffffffffffffff1681526020019081526020016000206005015481526020019081526020016000206000820151816000015560208201518160010155604082015181600201908051906020019061111c929190611238565b50606082015181600301559050506000803373ffffffffffffffffffffffffffffffffffffffff1673ffffffffffffffffffffffffffffffffffffffff168152602001908152602001600020600501600081548092919060010191905055507f03f23a9b67af957c8605376a4f515b53f102d4ad7f4da099bd1aff8e3ee13fec3360016000803373ffffffffffffffffffffffffffffffffffffffff1673ffffffffffffffffffffffffffffffffffffffff168152602001908152602001600020600501540383604051808473ffffffffffffffffffffffffffffffffffffffff1673ffffffffffffffffffffffffffffffffffffffff168152602001838152602001828152602001935050505060405180910390a150505050565b828054600181600116156101000203166002900490600052602060002090601f016020900481019282601f1061127957805160ff19168380011785556112a7565b828001600101855582156112a7579182015b828111156112a657825182559160200191906001019061128b565b5b5090506112b491906112b8565b5090565b6112da91905b808211156112d65760008160009055506001016112be565b5090565b9056fea265627a7a723158205ac915cee4af4c4eb46fb3c885ef7df68014f430f9bdb9102840b2770cb094af64736f6c6343000510003268747470733a2f2f696d616765732e70726963656f79652e706b2f6170706c652d6970686f6e652d78692d70616b697374616e2d70726963656f79652d6f696b316f2d353030783530302e77656270426c7565746f6f746820746563686e6f6c6f6779206c65747320796f7520636f6e6e656374206974207769746820636f6d70617469626c65206465766963657320776972656c6573736c7920486967682d7175616c6974792041414320617564696f206f666665727320696d6d657273697665206c697374656e696e6720657870657269656e6365204275696c742d696e206d6963726f70686f6e6520616c6c6f777320796f7520746f2074616b652063616c6c73207768696c6520776f726b696e67416972706f647320576972656c65737320426c7565746f6f7468204865616470686f6e657368747470733a2f2f726562656c746563682e636f6d2f77702d636f6e74656e742f75706c6f6164732f323032312f31302f4d4d4537332e6a7067",
  "source": "// SPDX-License-Identifier: MIT\r\npragma solidity >=0.4.22 <=0.8.17;\r\n\r\n// pragma experimental ABIEncoderV2;\r\n\r\ncontract Store {\r\n    struct User {\r\n        address id;\r\n        string username;\r\n        string name;\r\n        string billingAdd;\r\n        string password;\r\n        uint256 orderCount;\r\n    }\r\n\r\n    struct Product {\r\n        uint256 id;\r\n        string name;\r\n        uint256 price;\r\n        uint256 quantity;\r\n        string description;\r\n        string imgUrl;\r\n        uint256 reviewCount;\r\n    }\r\n\r\n    // struct Review {\r\n    //     address user;\r\n    //     uint256 rating;\r\n    //     string review;\r\n    // }\r\n\r\n    struct Order {\r\n        uint256 id;\r\n        uint256 amount;\r\n        string shippingDetails;\r\n        uint256 orderProductCount;\r\n    }\r\n\r\n    struct OrderProduct {\r\n        uint256 id;\r\n        uint256 quantity;\r\n    }\r\n\r\n    // Mappings for handling user functionalities\r\n    mapping(address => User) userList;\r\n    mapping(address => mapping(uint256 => Order)) orderList;\r\n    mapping(address => mapping(uint256 => mapping(uint256 => Product))) orderProductList;\r\n\r\n    // Mappings for handling product functionalities\r\n    mapping(uint256 => Product) productList;\r\n    // mapping(uint256 => mapping(uint256 => Review)) reviewList;\r\n\r\n    uint256 productCount = 0;\r\n\r\n    event UserAdded(address, string);\r\n    event ProductAdded(uint256, string);\r\n    event ReviewAdded(uint256, string, uint256);\r\n    event OrderPlaced(address, uint256, uint256);\r\n\r\n    constructor() public {\r\n        addProduct(\r\n            \"Airpods Wireless Bluetooth Headphones\",\r\n            \"Bluetooth technology lets you connect it with compatible devices wirelessly High-quality AAC audio offers immersive listening experience Built-in microphone allows you to take calls while working\",\r\n            \"https://rebeltech.com/wp-content/uploads/2021/10/MME73.jpg\",\r\n            14999,\r\n            20\r\n        );\r\n        addProduct(\r\n            \"iPhone 11 Pro 256GB Memory\",\r\n            \"Bluetooth technology lets you connect it with compatible devices wirelessly High-quality AAC audio offers immersive listening experience Built-in microphone allows you to take calls while working\",\r\n            \"https://images.priceoye.pk/apple-iphone-xi-pakistan-priceoye-oik1o-500x500.webp\",\r\n            14999,\r\n            20\r\n        );\r\n        addProduct(\r\n            \"Cannon EOS 80D DSLR Camera\",\r\n            \"Bluetooth technology lets you connect it with compatible devices wirelessly High-quality AAC audio offers immersive listening experience Built-in microphone allows you to take calls while working\",\r\n            \"data:img\",\r\n            14999,\r\n            20\r\n        );\r\n    }\r\n\r\n    function addUser(\r\n        string memory _username,\r\n        string memory _name,\r\n        string memory _billingAdd,\r\n        string memory _password\r\n    ) public returns (string memory) {\r\n        // require(\r\n        //     userList[msg.sender].id == msg.sender,\r\n        //     \"Store: addUser - User already exists\"\r\n        // );\r\n\r\n        userList[msg.sender] = User(\r\n            msg.sender,\r\n            _username,\r\n            _name,\r\n            _billingAdd,\r\n            _password,\r\n            0\r\n        );\r\n\r\n        emit UserAdded(msg.sender, _username);\r\n        return userList[msg.sender].username;\r\n    }\r\n\r\n    // function getUser(string memory _username, string memory _password)\r\n    //     public\r\n    //     view\r\n    //     returns (bool)\r\n    // {\r\n    //     // require(StringUtils  userList[msg.sender].username == _username);\r\n    // }\r\n\r\n    // function getUserOrder(address _id) public view returns (Order[] memory) {\r\n    //     Order[] memory orders = new Order[](userList[_id].orderCount);\r\n\r\n    //     for (uint256 i = 0; i < userList[_id].orderCount; i++) {\r\n    //         orders[i] = orderList[_id][i];\r\n    //     }\r\n\r\n    //     return orders;\r\n    // }\r\n\r\n    // function getUserOrderProducts(address _id, uint256 _orderId)\r\n    //     public\r\n    //     view\r\n    //     returns (Product[] memory)\r\n    // {\r\n    //     Product[] memory products = new Product[](\r\n    //         orderList[_id][_orderId].orderProductCount\r\n    //     );\r\n    //     for (\r\n    //         uint256 i = 0;\r\n    //         i < orderList[_id][_orderId].orderProductCount;\r\n    //         i++\r\n    //     ) {\r\n    //         products[i] = orderProductList[_id][_orderId][i];\r\n    //     }\r\n\r\n    //     return products;\r\n    // }\r\n\r\n    function addProduct(\r\n        string memory _name,\r\n        string memory _description,\r\n        string memory _imgUrl,\r\n        uint256 _price,\r\n        uint256 _quantity\r\n    ) public returns (uint256) {\r\n        productList[productCount] = Product(\r\n            productCount,\r\n            _name,\r\n            _price,\r\n            _quantity,\r\n            _description,\r\n            _imgUrl,\r\n            0\r\n        );\r\n\r\n        productCount++;\r\n        emit ProductAdded(productCount, _name);\r\n        return productCount - 1;\r\n    }\r\n\r\n    // function getProducts() public view returns (Product[] memory) {\r\n    //     Product[] memory products = new Product[](productCount);\r\n\r\n    //     for (uint256 i = 0; i < productCount; i++) {\r\n    //         products[i] = productList[i];\r\n    //     }\r\n\r\n    //     return products;\r\n    // }\r\n\r\n    // function getProduct(uint256 _id) public view returns (Product memory) {\r\n    //     return productList[_id];\r\n    // }\r\n\r\n    // function addReview(\r\n    //     uint256 _productId,\r\n    //     uint256 _rating,\r\n    //     string memory _review\r\n    // ) public {\r\n    //     require(\r\n    //         userList[msg.sender].id == address(0),\r\n    //         \"Store: addReview - User does not exist\"\r\n    //     );\r\n\r\n    //     require(\r\n    //         _rating < 0 || _rating > 5,\r\n    //         \"Store: addReview - Rating should be between 0 and 5\"\r\n    //     );\r\n\r\n    //     require(\r\n    //         _productId < 0 || _productId > productCount,\r\n    //         \"Store: addReview - Product does not exist\"\r\n    //     );\r\n\r\n    //     require(\r\n    //         productList[_productId].id != _productId,\r\n    //         \"Store: addReview - Product does not exist\"\r\n    //     );\r\n\r\n    //     reviewList[_productId][productList[_productId].reviewCount] = Review(\r\n    //         msg.sender,\r\n    //         _rating,\r\n    //         _review\r\n    //     );\r\n\r\n    //     productList[_productId].reviewCount++;\r\n\r\n    //     emit ReviewAdded(\r\n    //         productList[_productId].reviewCount - 1,\r\n    //         _review,\r\n    //         _rating\r\n    //     );\r\n    // }\r\n\r\n    // function getReviews(uint256 _productId)\r\n    //     public\r\n    //     view\r\n    //     returns (Review[] memory)\r\n    // {\r\n    //     Review[] memory reviews = new Review[](\r\n    //         productList[_productId].reviewCount\r\n    //     );\r\n\r\n    //     for (uint256 i = 0; i < productList[_productId].reviewCount; i++) {\r\n    //         reviews[i] = reviewList[_productId][i];\r\n    //     }\r\n\r\n    //     return reviews;\r\n    // }\r\n\r\n    // function getReview(uint256 _productId, uint256 _reviewId)\r\n    //     public\r\n    //     view\r\n    //     returns (Review memory)\r\n    // {\r\n    //     return reviewList[_productId][_reviewId];\r\n    // }\r\n\r\n    function addOrder(\r\n        uint256[] memory _products,\r\n        uint256[] memory _quantity,\r\n        string memory _shippingDet\r\n    ) public {\r\n        // require(\r\n        //     userList[msg.sender].id == address(0),\r\n        //     \"Store: addOrder - User does not exist\"\r\n        // );\r\n\r\n        uint256 total = 0;\r\n        // for (uint256 i = 0; i < _products.length; i++) {\r\n        //     require(\r\n        //         _products[i] < 0 || _products[i] > productCount,\r\n        //         \"Store: addOrder - Product does not exist\"\r\n        //     );\r\n\r\n        //     require(\r\n        //         productList[_products[i].id].id != _products[i].id,\r\n        //         \"Store: addOrder - Product does not exist\"\r\n        //     );\r\n\r\n        //     require(\r\n        //         productList[_products[i].quantity].quantity == 0,\r\n        //         \"Store: addOrder - Product out of stock\"\r\n        //     );\r\n        // }\r\n\r\n        for (uint256 i = 0; i < _products.length; i++) {\r\n            uint256 _productID = _products[i];\r\n\r\n            productList[_productID].quantity -= _quantity[i];\r\n            total += productList[_productID].price;\r\n\r\n            orderProductList[msg.sender][userList[msg.sender].orderCount][\r\n                i\r\n            ] = Product(\r\n                _productID,\r\n                productList[_productID].name,\r\n                productList[_productID].price,\r\n                _quantity[i],\r\n                productList[_productID].description,\r\n                productList[_productID].imgUrl,\r\n                productList[_productID].reviewCount\r\n            );\r\n        }\r\n\r\n        orderList[msg.sender][userList[msg.sender].orderCount] = Order(\r\n            userList[msg.sender].orderCount,\r\n            total,\r\n            _shippingDet,\r\n            _products.length\r\n        );\r\n\r\n        userList[msg.sender].orderCount++;\r\n\r\n        emit OrderPlaced(\r\n            msg.sender,\r\n            userList[msg.sender].orderCount - 1,\r\n            total\r\n        );\r\n    }\r\n}\r\n",
  "sourcePath": "E:\\Semester 7\\Blockchain and Cryptography\\Project\\Blockchain-MERN-Ecommerce\\solidity\\contracts\\Store.sol",
  "compiler": {
    "name": "solc",
    "version": "0.5.16+commit.9c3226ce.Emscripten.clang"
  },
  "schemaVersion": "3.4.10",
  "updatedAt": "2022-12-02T22:58:15.980Z",
  "devdoc": {
    "methods": {}
  },
  "userdoc": {
    "methods": {}
  }
}