{
  "contractName": "Store",
  "abi": [
    {
      "inputs": [],
      "payable": false,
      "stateMutability": "nonpayable",
      "type": "constructor"
    },
    {
      "anonymous": false,
      "inputs": [
        {
          "indexed": false,
          "internalType": "address",
          "name": "",
          "type": "address"
        },
        {
          "indexed": false,
          "internalType": "uint256",
          "name": "",
          "type": "uint256"
        },
        {
          "indexed": false,
          "internalType": "uint256",
          "name": "",
          "type": "uint256"
        }
      ],
      "name": "OrderPlaced",
      "type": "event"
    },
    {
      "anonymous": false,
      "inputs": [
        {
          "indexed": false,
          "internalType": "uint256",
          "name": "",
          "type": "uint256"
        },
        {
          "indexed": false,
          "internalType": "string",
          "name": "",
          "type": "string"
        }
      ],
      "name": "ProductAdded",
      "type": "event"
    },
    {
      "anonymous": false,
      "inputs": [
        {
          "indexed": false,
          "internalType": "uint256",
          "name": "",
          "type": "uint256"
        },
        {
          "indexed": false,
          "internalType": "string",
          "name": "",
          "type": "string"
        }
      ],
      "name": "ProductReturned",
      "type": "event"
    },
    {
      "anonymous": false,
      "inputs": [
        {
          "indexed": false,
          "internalType": "uint256",
          "name": "",
          "type": "uint256"
        },
        {
          "indexed": false,
          "internalType": "string",
          "name": "",
          "type": "string"
        },
        {
          "indexed": false,
          "internalType": "uint256",
          "name": "",
          "type": "uint256"
        }
      ],
      "name": "ReviewAdded",
      "type": "event"
    },
    {
      "anonymous": false,
      "inputs": [
        {
          "indexed": false,
          "internalType": "address",
          "name": "",
          "type": "address"
        },
        {
          "indexed": false,
          "internalType": "string",
          "name": "",
          "type": "string"
        }
      ],
      "name": "UserAdded",
      "type": "event"
    },
    {
      "constant": false,
      "inputs": [
        {
          "internalType": "string",
          "name": "_username",
          "type": "string"
        },
        {
          "internalType": "string",
          "name": "_name",
          "type": "string"
        },
        {
          "internalType": "string",
          "name": "_billingAdd",
          "type": "string"
        },
        {
          "internalType": "string",
          "name": "_password",
          "type": "string"
        }
      ],
      "name": "addUser",
      "outputs": [
        {
          "internalType": "string",
          "name": "",
          "type": "string"
        }
      ],
      "payable": false,
      "stateMutability": "nonpayable",
      "type": "function"
    },
    {
      "constant": false,
      "inputs": [
        {
          "components": [
            {
              "internalType": "uint256",
              "name": "id",
              "type": "uint256"
            },
            {
              "internalType": "uint256",
              "name": "quantity",
              "type": "uint256"
            }
          ],
          "internalType": "struct Store.OrderProduct[]",
          "name": "_products",
          "type": "tuple[]"
        },
        {
          "internalType": "string",
          "name": "_shippingDet",
          "type": "string"
        }
      ],
      "name": "addOrder",
      "outputs": [
        {
          "internalType": "uint256",
          "name": "",
          "type": "uint256"
        }
      ],
      "payable": false,
      "stateMutability": "nonpayable",
      "type": "function"
    },
    {
      "constant": false,
      "inputs": [
        {
          "internalType": "string",
          "name": "_name",
          "type": "string"
        },
        {
          "internalType": "string",
          "name": "_description",
          "type": "string"
        },
        {
          "internalType": "string",
          "name": "_imgUrl",
          "type": "string"
        },
        {
          "internalType": "uint256",
          "name": "_price",
          "type": "uint256"
        },
        {
          "internalType": "uint256",
          "name": "_quantity",
          "type": "uint256"
        }
      ],
      "name": "addProduct",
      "outputs": [
        {
          "internalType": "uint256",
          "name": "",
          "type": "uint256"
        }
      ],
      "payable": false,
      "stateMutability": "nonpayable",
      "type": "function"
    },
    {
      "constant": false,
      "inputs": [
        {
          "internalType": "uint256",
          "name": "prodID",
          "type": "uint256"
        }
      ],
      "name": "getProduct",
      "outputs": [
        {
          "components": [
            {
              "internalType": "uint256",
              "name": "id",
              "type": "uint256"
            },
            {
              "internalType": "string",
              "name": "name",
              "type": "string"
            },
            {
              "internalType": "uint256",
              "name": "price",
              "type": "uint256"
            },
            {
              "internalType": "uint256",
              "name": "quantity",
              "type": "uint256"
            },
            {
              "internalType": "string",
              "name": "description",
              "type": "string"
            },
            {
              "internalType": "string",
              "name": "imgUrl",
              "type": "string"
            },
            {
              "internalType": "uint256",
              "name": "reviewCount",
              "type": "uint256"
            }
          ],
          "internalType": "struct Store.Product",
          "name": "",
          "type": "tuple"
        }
      ],
      "payable": false,
      "stateMutability": "nonpayable",
      "type": "function"
    }
  ],
  "bytecode": "0x608060405260006004553480156200001657600080fd5b506200007b60405180606001604052806025815260200162001cf96025913960405180610100016040528060c3815260200162001c3660c391396040518060600160405280603a815260200162001d1e603a9139613a976014620001a060201b60201c565b50620000fc6040518060400160405280601a81526020017f6950686f6e652031312050726f203235364742204d656d6f727900000000000081525060405180610100016040528060c3815260200162001c3660c391396040518060800160405280604f815260200162001be7604f9139613a976014620001a060201b60201c565b50620001996040518060400160405280601a81526020017f43616e6e6f6e20454f53203830442044534c522043616d65726100000000000081525060405180610100016040528060c3815260200162001c3660c391396040518060400160405280600a81526020017f646174613a696d61676500000000000000000000000000000000000000000000815250613a976014620001a060201b60201c565b5062000477565b60006040518060e001604052806004548152602001878152602001848152602001838152602001868152602001858152602001600081525060036000600454815260200190815260200160002060008201518160000155602082015181600101908051906020019062000215929190620002d5565b506040820151816002015560608201518160030155608082015181600401908051906020019062000248929190620002d5565b5060a082015181600501908051906020019062000267929190620002d5565b5060c082015181600601559050506004600081548092919060010191905055507f259101de1f87b04b9ee0332ce5e3cc508014004bf283424aead6cd8692f5cf9860045487604051620002bc929190620003d6565b60405180910390a1600160045403905095945050505050565b828054600181600116156101000203166002900490600052602060002090601f016020900481019282601f106200031857805160ff191683800117855562000349565b8280016001018555821562000349579182015b82811115620003485782518255916020019190600101906200032b565b5b5090506200035891906200035c565b5090565b6200038191905b808211156200037d57600081600090555060010162000363565b5090565b90565b600062000391826200040a565b6200039d818562000415565b9350620003af81856020860162000430565b620003ba8162000466565b840191505092915050565b620003d08162000426565b82525050565b6000604082019050620003ed6000830185620003c5565b818103602083015262000401818462000384565b90509392505050565b600081519050919050565b600082825260208201905092915050565b6000819050919050565b60005b838110156200045057808201518184015260208101905062000433565b8381111562000460576000848401525b50505050565b6000601f19601f8301169050919050565b61176080620004876000396000f3fe608060405234801561001057600080fd5b506004361061004c5760003560e01c806301cda3ac14610051578063524a046e14610081578063b9db15b4146100b1578063d8ea04db146100e1575b600080fd5b61006b600480360361006691908101906110dc565b610111565b60405161007891906114c6565b60405180910390f35b61009b6004803603610096919081019061119f565b61037a565b6040516100a8919061150a565b60405180910390f35b6100cb60048036036100c6919081019061125e565b6104a7565b6040516100d891906114e8565b60405180910390f35b6100fb60048036036100f69190810190611070565b610730565b604051610108919061150a565b60405180910390f35b60606040518060c001604052803373ffffffffffffffffffffffffffffffffffffffff16815260200186815260200185815260200184815260200183815260200160008152506000803373ffffffffffffffffffffffffffffffffffffffff1673ffffffffffffffffffffffffffffffffffffffff16815260200190815260200160002060008201518160000160006101000a81548173ffffffffffffffffffffffffffffffffffffffff021916908373ffffffffffffffffffffffffffffffffffffffff16021790555060208201518160010190805190602001906101f8929190610e56565b506040820151816002019080519060200190610215929190610e56565b506060820151816003019080519060200190610232929190610e56565b50608082015181600401908051906020019061024f929190610e56565b5060a082015181600501559050507fa56e21173460286ea98fc3defc7671b9b8e2ff0c6acea8d6ed30b343724e23fa338660405161028e92919061145f565b60405180910390a16000803373ffffffffffffffffffffffffffffffffffffffff1673ffffffffffffffffffffffffffffffffffffffff1681526020019081526020016000206001018054600181600116156101000203166002900480601f01602080910402602001604051908101604052809291908181526020018280546001816001161561010002031660029004801561036b5780601f106103405761010080835404028352916020019161036b565b820191906000526020600020905b81548152906001019060200180831161034e57829003601f168201915b50505050509050949350505050565b60006040518060e00160405280600454815260200187815260200184815260200183815260200186815260200185815260200160008152506003600060045481526020019081526020016000206000820151816000015560208201518160010190805190602001906103ed929190610e56565b506040820151816002015560608201518160030155608082015181600401908051906020019061041e929190610e56565b5060a082015181600501908051906020019061043b929190610e56565b5060c082015181600601559050506004600081548092919060010191905055507f259101de1f87b04b9ee0332ce5e3cc508014004bf283424aead6cd8692f5cf986004548760405161048e929190611525565b60405180910390a1600160045403905095945050505050565b6104af610ed6565b7f9da3d389c52913faa13a2f684fac92f9d98a2a6d6014c12f3876dd7bcccf138b82600360008581526020019081526020016000206001016040516104f5929190611555565b60405180910390a1600360008381526020019081526020016000206040518060e001604052908160008201548152602001600182018054600181600116156101000203166002900480601f0160208091040260200160405190810160405280929190818152602001828054600181600116156101000203166002900480156105be5780601f10610593576101008083540402835291602001916105be565b820191906000526020600020905b8154815290600101906020018083116105a157829003601f168201915b505050505081526020016002820154815260200160038201548152602001600482018054600181600116156101000203166002900480601f0160208091040260200160405190810160405280929190818152602001828054600181600116156101000203166002900480156106745780601f1061064957610100808354040283529160200191610674565b820191906000526020600020905b81548152906001019060200180831161065757829003601f168201915b50505050508152602001600582018054600181600116156101000203166002900480601f0160208091040260200160405190810160405280929190818152602001828054600181600116156101000203166002900480156107165780601f106106eb57610100808354040283529160200191610716565b820191906000526020600020905b8154815290600101906020018083116106f957829003601f168201915b505050505081526020016006820154815250509050919050565b6000806000905060008090505b8451811015610c055784818151811061075257fe5b6020026020010151602001516003600087848151811061076e57fe5b602002602001015160000151815260200190815260200160002060030160008282540392505081905550600360008683815181106107a857fe5b602002602001015160000151815260200190815260200160002060020154820191506040518060e001604052808683815181106107e157fe5b60200260200101516000015181526020016003600088858151811061080257fe5b60200260200101516000015181526020019081526020016000206001018054600181600116156101000203166002900480601f0160208091040260200160405190810160405280929190818152602001828054600181600116156101000203166002900480156108b35780601f10610888576101008083540402835291602001916108b3565b820191906000526020600020905b81548152906001019060200180831161089657829003601f168201915b50505050508152602001600360008885815181106108cd57fe5b60200260200101516000015181526020019081526020016000206002015481526020018683815181106108fc57fe5b60200260200101516020015181526020016003600088858151811061091d57fe5b60200260200101516000015181526020019081526020016000206004018054600181600116156101000203166002900480601f0160208091040260200160405190810160405280929190818152602001828054600181600116156101000203166002900480156109ce5780601f106109a3576101008083540402835291602001916109ce565b820191906000526020600020905b8154815290600101906020018083116109b157829003601f168201915b50505050508152602001600360008885815181106109e857fe5b60200260200101516000015181526020019081526020016000206005018054600181600116156101000203166002900480601f016020809104026020016040519081016040528092919081815260200182805460018160011615610100020316600290048015610a995780601f10610a6e57610100808354040283529160200191610a99565b820191906000526020600020905b815481529060010190602001808311610a7c57829003601f168201915b5050505050815260200160036000888581518110610ab357fe5b602002602001015160000151815260200190815260200160002060060154815250600260003373ffffffffffffffffffffffffffffffffffffffff1673ffffffffffffffffffffffffffffffffffffffff16815260200190815260200160002060008060003373ffffffffffffffffffffffffffffffffffffffff1673ffffffffffffffffffffffffffffffffffffffff1681526020019081526020016000206005015481526020019081526020016000206000838152602001908152602001600020600082015181600001556020820151816001019080519060200190610b9c929190610e56565b5060408201518160020155606082015181600301556080820151816004019080519060200190610bcd929190610e56565b5060a0820151816005019080519060200190610bea929190610e56565b5060c08201518160060155905050808060010191505061073d565b5060405180608001604052806000803373ffffffffffffffffffffffffffffffffffffffff1673ffffffffffffffffffffffffffffffffffffffff1681526020019081526020016000206005015481526020018281526020018481526020018551815250600160003373ffffffffffffffffffffffffffffffffffffffff1673ffffffffffffffffffffffffffffffffffffffff16815260200190815260200160002060008060003373ffffffffffffffffffffffffffffffffffffffff1673ffffffffffffffffffffffffffffffffffffffff16815260200190815260200160002060050154815260200190815260200160002060008201518160000155602082015181600101556040820151816002019080519060200190610d2a929190610e56565b50606082015181600301559050506000803373ffffffffffffffffffffffffffffffffffffffff1673ffffffffffffffffffffffffffffffffffffffff168152602001908152602001600020600501600081548092919060010191905055507f03f23a9b67af957c8605376a4f515b53f102d4ad7f4da099bd1aff8e3ee13fec3360016000803373ffffffffffffffffffffffffffffffffffffffff1673ffffffffffffffffffffffffffffffffffffffff168152602001908152602001600020600501540383604051610e009392919061148f565b60405180910390a160016000803373ffffffffffffffffffffffffffffffffffffffff1673ffffffffffffffffffffffffffffffffffffffff168152602001908152602001600020600501540391505092915050565b828054600181600116156101000203166002900490600052602060002090601f016020900481019282601f10610e9757805160ff1916838001178555610ec5565b82800160010185558215610ec5579182015b82811115610ec4578251825591602001919060010190610ea9565b5b509050610ed29190610f13565b5090565b6040518060e00160405280600081526020016060815260200160008152602001600081526020016060815260200160608152602001600081525090565b610f3591905b80821115610f31576000816000905550600101610f19565b5090565b90565b600082601f830112610f4957600080fd5b8135610f5c610f57826115b2565b611585565b91508181835260208401935060208101905083856040840282011115610f8157600080fd5b60005b83811015610fb15781610f97888261100f565b845260208401935060408301925050600181019050610f84565b5050505092915050565b600082601f830112610fcc57600080fd5b8135610fdf610fda826115da565b611585565b91508082526020830160208301858383011115610ffb57600080fd5b6110068382846116b3565b50505092915050565b60006040828403121561102157600080fd5b61102b6040611585565b9050600061103b8482850161105b565b600083015250602061104f8482850161105b565b60208301525092915050565b60008135905061106a81611706565b92915050565b6000806040838503121561108357600080fd5b600083013567ffffffffffffffff81111561109d57600080fd5b6110a985828601610f38565b925050602083013567ffffffffffffffff8111156110c657600080fd5b6110d285828601610fbb565b9150509250929050565b600080600080608085870312156110f257600080fd5b600085013567ffffffffffffffff81111561110c57600080fd5b61111887828801610fbb565b945050602085013567ffffffffffffffff81111561113557600080fd5b61114187828801610fbb565b935050604085013567ffffffffffffffff81111561115e57600080fd5b61116a87828801610fbb565b925050606085013567ffffffffffffffff81111561118757600080fd5b61119387828801610fbb565b91505092959194509250565b600080600080600060a086880312156111b757600080fd5b600086013567ffffffffffffffff8111156111d157600080fd5b6111dd88828901610fbb565b955050602086013567ffffffffffffffff8111156111fa57600080fd5b61120688828901610fbb565b945050604086013567ffffffffffffffff81111561122357600080fd5b61122f88828901610fbb565b93505060606112408882890161105b565b92505060806112518882890161105b565b9150509295509295909350565b60006020828403121561127057600080fd5b600061127e8482850161105b565b91505092915050565b6112908161167d565b82525050565b60006112a182611626565b6112ab8185611642565b93506112bb8185602086016116c2565b6112c4816116f5565b840191505092915050565b60006112da8261161b565b6112e48185611631565b93506112f48185602086016116c2565b6112fd816116f5565b840191505092915050565b600081546001811660008114611325576001811461134b5761138f565b607f60028304166113368187611642565b955060ff19831686526020860193505061138f565b600282046113598187611642565b955061136485611606565b60005b8281101561138657815481890152600182019150602081019050611367565b80880195505050505b505092915050565b600060e0830160008301516113af6000860182611441565b50602083015184820360208601526113c782826112cf565b91505060408301516113dc6040860182611441565b5060608301516113ef6060860182611441565b506080830151848203608086015261140782826112cf565b91505060a083015184820360a086015261142182826112cf565b91505060c083015161143660c0860182611441565b508091505092915050565b61144a81611673565b82525050565b61145981611673565b82525050565b60006040820190506114746000830185611287565b81810360208301526114868184611296565b90509392505050565b60006060820190506114a46000830186611287565b6114b16020830185611450565b6114be6040830184611450565b949350505050565b600060208201905081810360008301526114e08184611296565b905092915050565b600060208201905081810360008301526115028184611397565b905092915050565b600060208201905061151f6000830184611450565b92915050565b600060408201905061153a6000830185611450565b818103602083015261154c8184611296565b90509392505050565b600060408201905061156a6000830185611450565b818103602083015261157c8184611308565b90509392505050565b6000604051905081810181811067ffffffffffffffff821117156115a857600080fd5b8060405250919050565b600067ffffffffffffffff8211156115c957600080fd5b602082029050602081019050919050565b600067ffffffffffffffff8211156115f157600080fd5b601f19601f8301169050602081019050919050565b60008190508160005260206000209050919050565b600081519050919050565b600081519050919050565b600082825260208201905092915050565b600082825260208201905092915050565b600073ffffffffffffffffffffffffffffffffffffffff82169050919050565b6000819050919050565b60006116888261168f565b9050919050565b600061169a826116a1565b9050919050565b60006116ac82611653565b9050919050565b82818337600083830152505050565b60005b838110156116e05780820151818401526020810190506116c5565b838111156116ef576000848401525b50505050565b6000601f19601f8301169050919050565b61170f81611673565b811461171a57600080fd5b5056fea365627a7a72315820285bc183b91014f41e39689904fe837a4c80dfe4b6d4e85f665fbb52f1b417716c6578706572696d656e74616cf564736f6c6343000510004068747470733a2f2f696d616765732e70726963656f79652e706b2f6170706c652d6970686f6e652d78692d70616b697374616e2d70726963656f79652d6f696b316f2d353030783530302e77656270426c7565746f6f746820746563686e6f6c6f6779206c65747320796f7520636f6e6e656374206974207769746820636f6d70617469626c65206465766963657320776972656c6573736c7920486967682d7175616c6974792041414320617564696f206f666665727320696d6d657273697665206c697374656e696e6720657870657269656e6365204275696c742d696e206d6963726f70686f6e6520616c6c6f777320796f7520746f2074616b652063616c6c73207768696c6520776f726b696e67416972706f647320576972656c65737320426c7565746f6f7468204865616470686f6e657368747470733a2f2f726562656c746563682e636f6d2f77702d636f6e74656e742f75706c6f6164732f323032312f31302f4d4d4537332e6a7067",
  "source": "// SPDX-License-Identifier: MIT\r\npragma solidity >=0.4.22 <=0.8.17;\r\n\r\npragma experimental ABIEncoderV2;\r\n\r\ncontract Store {\r\n    struct User {\r\n        address id;\r\n        string username;\r\n        string name;\r\n        string billingAdd;\r\n        string password;\r\n        uint256 orderCount;\r\n    }\r\n\r\n    struct Product {\r\n        uint256 id;\r\n        string name;\r\n        uint256 price;\r\n        uint256 quantity;\r\n        string description;\r\n        string imgUrl;\r\n        uint256 reviewCount;\r\n    }\r\n\r\n    // struct Review {\r\n    //     address user;\r\n    //     uint256 rating;\r\n    //     string review;\r\n    // }\r\n\r\n    struct Order {\r\n        uint256 id;\r\n        uint256 amount;\r\n        string shippingDetails;\r\n        uint256 orderProductCount;\r\n    }\r\n\r\n    struct OrderProduct {\r\n        uint256 id;\r\n        uint256 quantity;\r\n    }\r\n\r\n    // Mappings for handling user functionalities\r\n    mapping(address => User) userList;\r\n    mapping(address => mapping(uint256 => Order)) orderList;\r\n    mapping(address => mapping(uint256 => mapping(uint256 => Product))) orderProductList;\r\n\r\n    // Mappings for handling product functionalities\r\n    mapping(uint256 => Product) productList;\r\n    // mapping(uint256 => mapping(uint256 => Review)) reviewList;\r\n\r\n    uint256 productCount = 0;\r\n\r\n    event UserAdded(address, string);\r\n    event ProductAdded(uint256, string);\r\n    event ReviewAdded(uint256, string, uint256);\r\n    event OrderPlaced(address, uint256, uint256);\r\n    event ProductReturned(uint256,string);\r\n\r\n    constructor() public {\r\n        addProduct(\r\n            \"Airpods Wireless Bluetooth Headphones\",\r\n            \"Bluetooth technology lets you connect it with compatible devices wirelessly High-quality AAC audio offers immersive listening experience Built-in microphone allows you to take calls while working\",\r\n            \"https://rebeltech.com/wp-content/uploads/2021/10/MME73.jpg\",\r\n            14999,\r\n            20\r\n        );\r\n        addProduct(\r\n            \"iPhone 11 Pro 256GB Memory\",\r\n            \"Bluetooth technology lets you connect it with compatible devices wirelessly High-quality AAC audio offers immersive listening experience Built-in microphone allows you to take calls while working\",\r\n            \"https://images.priceoye.pk/apple-iphone-xi-pakistan-priceoye-oik1o-500x500.webp\",\r\n            14999,\r\n            20\r\n        );\r\n        addProduct(\r\n            \"Cannon EOS 80D DSLR Camera\",\r\n            \"Bluetooth technology lets you connect it with compatible devices wirelessly High-quality AAC audio offers immersive listening experience Built-in microphone allows you to take calls while working\",\r\n            \"data:image\",\r\n            14999,\r\n            20\r\n        );\r\n    }\r\n\r\n    function addUser(\r\n        string memory _username,\r\n        string memory _name,\r\n        string memory _billingAdd,\r\n        string memory _password\r\n    ) public returns (string memory) {\r\n        // require(\r\n        //     userList[msg.sender].id == msg.sender,\r\n        //     \"Store: addUser - User already exists\"\r\n        // );\r\n\r\n        userList[msg.sender] = User(\r\n            msg.sender,\r\n            _username,\r\n            _name,\r\n            _billingAdd,\r\n            _password,\r\n            0\r\n        );\r\n\r\n        emit UserAdded(msg.sender, _username);\r\n        return userList[msg.sender].username;\r\n    }\r\n\r\n    // function getUser(string memory _username, string memory _password)\r\n    //     public\r\n    //     view\r\n    //     returns (bool)\r\n    // {\r\n    //     // require(StringUtils  userList[msg.sender].username == _username);\r\n    // }\r\n\r\n    // function getUserOrder(address _id) public view returns (Order[] memory) {\r\n    //     Order[] memory orders = new Order[](userList[_id].orderCount);\r\n\r\n    //     for (uint256 i = 0; i < userList[_id].orderCount; i++) {\r\n    //         orders[i] = orderList[_id][i];\r\n    //     }\r\n\r\n    //     return orders;\r\n    // }\r\n\r\n    // function getUserOrderProducts(address _id, uint256 _orderId)\r\n    //     public\r\n    //     view\r\n    //     returns (Product[] memory)\r\n    // {\r\n    //     Product[] memory products = new Product[](\r\n    //         orderList[_id][_orderId].orderProductCount\r\n    //     );\r\n    //     for (\r\n    //         uint256 i = 0;\r\n    //         i < orderList[_id][_orderId].orderProductCount;\r\n    //         i++\r\n    //     ) {\r\n    //         products[i] = orderProductList[_id][_orderId][i];\r\n    //     }\r\n\r\n    //     return products;\r\n    // }\r\n\r\n    \r\n    function addOrder(\r\n        OrderProduct[] memory _products,\r\n        string memory _shippingDet\r\n    ) public returns (uint256){\r\n        // require(\r\n        //     userList[msg.sender].id == address(0),\r\n        //     \"Store: addOrder - User does not exist\"\r\n        // );\r\n\r\n        uint256 total = 0;\r\n        // for (uint256 i = 0; i < _products.length; i++) {\r\n        //     require(\r\n        //         _products[i].id < 0 || _products[i].id > productCount,\r\n        //         \"Store: addOrder - Product does not exist\"\r\n        //     );\r\n\r\n        //     require(\r\n        //         productList[_products[i].id].id != _products[i].id,\r\n        //         \"Store: addOrder - Product does not exist\"\r\n        //     );\r\n\r\n        //     require(\r\n        //         productList[_products[i].quantity].quantity == 0,\r\n        //         \"Store: addOrder - Product out of stock\"\r\n        //     );\r\n        // }\r\n\r\n        for (uint256 i = 0; i < _products.length; i++) {\r\n            productList[_products[i].id].quantity -= _products[i].quantity;\r\n            total += productList[_products[i].id].price;\r\n\r\n            orderProductList[msg.sender][userList[msg.sender].orderCount][\r\n                i\r\n            ] = Product(\r\n                _products[i].id,\r\n                productList[_products[i].id].name,\r\n                productList[_products[i].id].price,\r\n                _products[i].quantity,\r\n                productList[_products[i].id].description,\r\n                productList[_products[i].id].imgUrl,\r\n                productList[_products[i].id].reviewCount\r\n            );\r\n        }\r\n\r\n        orderList[msg.sender][userList[msg.sender].orderCount] = Order(\r\n            userList[msg.sender].orderCount,\r\n            total,\r\n            _shippingDet,\r\n            _products.length\r\n        );\r\n\r\n        userList[msg.sender].orderCount++;\r\n\r\n        emit OrderPlaced(\r\n            msg.sender,\r\n            userList[msg.sender].orderCount - 1,\r\n            total\r\n        );\r\n        return userList[msg.sender].orderCount-1;\r\n    }\r\n\r\n    function addProduct(\r\n        string memory _name,\r\n        string memory _description,\r\n        string memory _imgUrl,\r\n        uint256 _price,\r\n        uint256 _quantity\r\n    ) public returns (uint256) {\r\n        productList[productCount] = Product(\r\n            productCount,\r\n            _name,\r\n            _price,\r\n            _quantity,\r\n            _description,\r\n            _imgUrl,\r\n            0\r\n        );\r\n\r\n        productCount++;\r\n        emit ProductAdded(productCount, _name);\r\n        return productCount - 1;\r\n    }\r\n\r\n    function getProduct(uint256 prodID) public returns (Product memory)\r\n    {\r\n        emit ProductReturned(prodID, productList[prodID].name);\r\n        return productList[prodID];\r\n    }\r\n\r\n    // function getProducts() public view returns (Product[] memory) {\r\n    //     Product[] memory products = new Product[](productCount);\r\n\r\n    //     for (uint256 i = 0; i < productCount; i++) {\r\n    //         products[i] = productList[i];\r\n    //     }\r\n\r\n    //     return products;\r\n    // }\r\n\r\n    // function getProduct(uint256 _id) public view returns (Product memory) {\r\n    //     return productList[_id];\r\n    // }\r\n\r\n    // function addReview(\r\n    //     uint256 _productId,\r\n    //     uint256 _rating,\r\n    //     string memory _review\r\n    // ) public {\r\n    //     require(\r\n    //         userList[msg.sender].id == address(0),\r\n    //         \"Store: addReview - User does not exist\"\r\n    //     );\r\n\r\n    //     require(\r\n    //         _rating < 0 || _rating > 5,\r\n    //         \"Store: addReview - Rating should be between 0 and 5\"\r\n    //     );\r\n\r\n    //     require(\r\n    //         _productId < 0 || _productId > productCount,\r\n    //         \"Store: addReview - Product does not exist\"\r\n    //     );\r\n\r\n    //     require(\r\n    //         productList[_productId].id != _productId,\r\n    //         \"Store: addReview - Product does not exist\"\r\n    //     );\r\n\r\n    //     reviewList[_productId][productList[_productId].reviewCount] = Review(\r\n    //         msg.sender,\r\n    //         _rating,\r\n    //         _review\r\n    //     );\r\n\r\n    //     productList[_productId].reviewCount++;\r\n\r\n    //     emit ReviewAdded(\r\n    //         productList[_productId].reviewCount - 1,\r\n    //         _review,\r\n    //         _rating\r\n    //     );\r\n    // }\r\n\r\n    // function getReviews(uint256 _productId)\r\n    //     public\r\n    //     view\r\n    //     returns (Review[] memory)\r\n    // {\r\n    //     Review[] memory reviews = new Review[](\r\n    //         productList[_productId].reviewCount\r\n    //     );\r\n\r\n    //     for (uint256 i = 0; i < productList[_productId].reviewCount; i++) {\r\n    //         reviews[i] = reviewList[_productId][i];\r\n    //     }\r\n\r\n    //     return reviews;\r\n    // }\r\n\r\n    // function getReview(uint256 _productId, uint256 _reviewId)\r\n    //     public\r\n    //     view\r\n    //     returns (Review memory)\r\n    // {\r\n    //     return reviewList[_productId][_reviewId];\r\n    // }\r\n\r\n}\r\n",
  "sourcePath": "C:\\Users\\xlive\\Blockchain-MERN-Ecommerce\\solidity\\contracts\\Store.sol",
  "compiler": {
    "name": "solc",
    "version": "0.5.16+commit.9c3226ce.Emscripten.clang"
  },
  "schemaVersion": "3.4.11",
  "updatedAt": "2022-12-02T23:33:36.446Z",
  "networkType": "ethereum",
  "devdoc": {
    "methods": {}
  },
  "userdoc": {
    "methods": {}
  }
}